20170119-10:08:32.801 : 8=FIX.4.2|9=69|35=A|34=1|49=S2TDMA|52=20170119-10:08:32.781|56=KOTAKS2T|98=0|108=30|10=004|
20170119-10:08:33.306 : 8=FIX.4.2|9=69|35=A|34=1|52=20170119-10:08:33.145|49=KOTAKS2T|56=S2TDMA|98=0|108=30|10=255|
20170119-10:09:03.198 : 8=FIX.4.2|9=57|35=0|34=2|49=S2TDMA|52=20170119-10:09:03.197|56=KOTAKS2T|10=216|
20170119-10:09:03.324 : 8=FIX.4.2|9=57|35=0|34=2|52=20170119-10:09:03.146|49=KOTAKS2T|56=S2TDMA|10=210|
20170119-10:09:33.274 : 8=FIX.4.2|9=57|35=0|34=3|52=20170119-10:09:33.147|49=KOTAKS2T|56=S2TDMA|10=215|
20170119-10:09:33.407 : 8=FIX.4.2|9=57|35=0|34=3|49=S2TDMA|52=20170119-10:09:33.406|56=KOTAKS2T|10=213|
20170119-10:10:04.096 : 8=FIX.4.2|9=57|35=0|34=4|52=20170119-10:10:03.147|49=KOTAKS2T|56=S2TDMA|10=205|
20170119-10:10:04.105 : 8=FIX.4.2|9=57|35=0|34=4|49=S2TDMA|52=20170119-10:10:04.102|56=KOTAKS2T|10=197|
20170119-10:10:30.018 : 8=FIX.4.2|9=170|35=D|34=5|49=S2TDMA|52=20170119-10:10:30.015|56=KOTAKS2T|1=D2|11=0|21=1|38=1|40=2|44=17.5|54=1|55=NIFTY|60=20170119-10:10:30.006|100=NS|167=OPT|201=0|202=7300|432=201703|10=091|
20170119-10:10:30.244 : 8=FIX.4.2|9=240|35=8|34=5|52=20170119-10:10:30.129|49=KOTAKS2T|56=S2TDMA|39=A|20=0|150=A|11=0|1=D2|21=1|54=1|55=NIFTY|59=0|167=FUT|200=201612|37=170119000013556|40=2|38=1|44=17.50|14=0|151=1|32=0|31=0.00|6=0.0000|60=20170119-10:10:30.129|17=17011900000001|10=179|
20170119-10:10:30.263 : 8=FIX.4.2|9=267|35=8|34=6|52=20170119-10:10:30.136|49=KOTAKS2T|56=S2TDMA|39=8|20=0|150=8|11=0|1=D2|21=1|54=1|55=NIFTY|59=0|167=FUT|200=201612|37=170119000013556|58=Order Id already exists|40=2|38=1|44=17.50|14=0|151=0|32=0|31=0.00|6=0.0000|60=20170119-10:10:30.136|17=17011900000002|10=221|
20170119-10:11:00.329 : 8=FIX.4.2|9=57|35=0|34=6|49=S2TDMA|52=20170119-10:11:00.328|56=KOTAKS2T|10=206|
20170119-10:11:00.330 : 8=FIX.4.2|9=57|35=0|34=7|52=20170119-10:11:00.136|49=KOTAKS2T|56=S2TDMA|10=204|
20170119-10:11:30.353 : 8=FIX.4.2|9=57|35=0|34=7|49=S2TDMA|52=20170119-10:11:30.352|56=KOTAKS2T|10=207|
20170119-10:11:30.389 : 8=FIX.4.2|9=57|35=0|34=8|52=20170119-10:11:30.137|49=KOTAKS2T|56=S2TDMA|10=209|
20170119-10:12:00.263 : 8=FIX.4.2|9=57|35=0|34=9|52=20170119-10:12:00.137|49=KOTAKS2T|56=S2TDMA|10=208|
20170119-10:12:01.270 : 8=FIX.4.2|9=57|35=0|34=8|49=S2TDMA|52=20170119-10:12:01.265|56=KOTAKS2T|10=210|
20170119-10:12:30.258 : 8=FIX.4.2|9=58|35=0|34=10|52=20170119-10:12:30.138|49=KOTAKS2T|56=S2TDMA|10=253|
20170119-10:12:31.283 : 8=FIX.4.2|9=57|35=0|34=9|49=S2TDMA|52=20170119-10:12:31.281|56=KOTAKS2T|10=212|
20170119-10:13:00.251 : 8=FIX.4.2|9=58|35=0|34=11|52=20170119-10:13:00.139|49=KOTAKS2T|56=S2TDMA|10=253|
20170119-10:13:02.256 : 8=FIX.4.2|9=58|35=0|34=10|49=S2TDMA|52=20170119-10:13:02.254|56=KOTAKS2T|10=252|
20170119-10:14:58.597 : 8=FIX.4.2|9=70|35=A|34=11|49=S2TDMA|52=20170119-10:14:58.582|56=KOTAKS2T|98=0|108=30|10=049|
20170119-10:14:59.116 : 8=FIX.4.2|9=70|35=A|34=12|52=20170119-10:14:58.954|49=KOTAKS2T|56=S2TDMA|98=0|108=30|10=053|
20170119-10:15:29.179 : 8=FIX.4.2|9=58|35=0|34=12|49=S2TDMA|52=20170119-10:15:29.178|56=KOTAKS2T|10=014|
20170119-10:15:29.783 : 8=FIX.4.2|9=58|35=0|34=13|52=20170119-10:15:28.954|49=KOTAKS2T|56=S2TDMA|10=016|
20170119-10:15:59.080 : 8=FIX.4.2|9=58|35=0|34=14|52=20170119-10:15:58.963|49=KOTAKS2T|56=S2TDMA|10=020|
20170119-10:15:59.787 : 8=FIX.4.2|9=58|35=0|34=13|49=S2TDMA|52=20170119-10:15:59.450|56=KOTAKS2T|10=011|
20170119-10:16:05.879 : 8=FIX.4.2|9=170|35=D|34=14|49=S2TDMA|52=20170119-10:16:05.874|56=KOTAKS2T|1=D2|11=0|21=1|38=1|40=2|44=7.1|54=1|55=NIFTY|60=20170119-10:16:05.862|100=NS|167=OPT|201=1|202=9700|432=201703|10=132|
20170119-10:16:06.134 : 8=FIX.4.2|9=267|35=8|34=15|52=20170119-10:16:06.033|49=KOTAKS2T|56=S2TDMA|39=8|20=0|150=8|11=0|1=D2|21=1|54=1|55=NIFTY|59=0|167=FUT|200=201612|37=170119000015385|58=Order Id already exists|40=2|38=1|44=7.10|14=0|151=0|32=0|31=0.00|6=0.0000|60=20170119-10:16:06.033|17=17011900000003|10=229|
20170119-10:16:36.108 : 8=FIX.4.2|9=58|35=0|34=16|52=20170119-10:16:36.033|49=KOTAKS2T|56=S2TDMA|10=007|
20170119-10:16:37.015 : 8=FIX.4.2|9=58|35=0|34=15|49=S2TDMA|52=20170119-10:16:37.015|56=KOTAKS2T|10=007|
20170119-10:17:06.203 : 8=FIX.4.2|9=58|35=0|34=17|52=20170119-10:17:06.033|49=KOTAKS2T|56=S2TDMA|10=006|
20170119-10:17:07.210 : 8=FIX.4.2|9=58|35=0|34=16|49=S2TDMA|52=20170119-10:17:07.208|56=KOTAKS2T|10=010|
20170119-10:17:36.118 : 8=FIX.4.2|9=58|35=0|34=18|52=20170119-10:17:36.033|49=KOTAKS2T|56=S2TDMA|10=010|
20170119-10:17:38.283 : 8=FIX.4.2|9=58|35=0|34=17|49=S2TDMA|52=20170119-10:17:38.281|56=KOTAKS2T|10=016|
20170119-10:18:06.219 : 8=FIX.4.2|9=58|35=0|34=19|52=20170119-10:18:06.034|49=KOTAKS2T|56=S2TDMA|10=010|
20170119-10:18:08.443 : 8=FIX.4.2|9=58|35=0|34=18|49=S2TDMA|52=20170119-10:18:08.442|56=KOTAKS2T|10=014|
20170119-10:18:12.912 : 8=FIX.4.2|9=170|35=D|34=19|49=S2TDMA|52=20170119-10:18:12.909|56=KOTAKS2T|1=D2|11=0|21=1|38=1|40=2|44=7.1|54=2|55=NIFTY|60=20170119-10:18:12.909|100=NS|167=OPT|201=1|202=9700|432=201703|10=139|
20170119-10:18:13.840 : 8=FIX.4.2|9=267|35=8|34=20|52=20170119-10:18:13.208|49=KOTAKS2T|56=S2TDMA|39=8|20=0|150=8|11=0|1=D2|21=1|54=1|55=NIFTY|59=0|167=FUT|200=201612|37=170119000015589|58=Order Id already exists|40=2|38=1|44=7.10|14=0|151=0|32=0|31=0.00|6=0.0000|60=20170119-10:18:13.208|17=17011900000004|10=240|
20170119-10:18:42.927 : 8=FIX.4.2|9=58|35=0|34=20|49=S2TDMA|52=20170119-10:18:42.923|56=KOTAKS2T|10=009|
20170119-10:18:43.276 : 8=FIX.4.2|9=58|35=0|34=21|52=20170119-10:18:43.209|49=KOTAKS2T|56=S2TDMA|10=008|
20170119-10:19:13.489 : 8=FIX.4.2|9=58|35=0|34=22|52=20170119-10:19:13.210|49=KOTAKS2T|56=S2TDMA|10=255|
20170119-10:19:13.495 : 8=FIX.4.2|9=58|35=0|34=21|49=S2TDMA|52=20170119-10:19:13.492|56=KOTAKS2T|10=010|
20170119-10:19:43.292 : 8=FIX.4.2|9=58|35=0|34=23|52=20170119-10:19:43.211|49=KOTAKS2T|56=S2TDMA|10=004|
20170119-10:19:44.404 : 8=FIX.4.2|9=58|35=0|34=22|49=S2TDMA|52=20170119-10:19:44.403|56=KOTAKS2T|10=007|
20170119-10:20:13.721 : 8=FIX.4.2|9=58|35=0|34=24|52=20170119-10:20:13.212|49=KOTAKS2T|56=S2TDMA|10=251|
20170119-10:20:14.727 : 8=FIX.4.2|9=58|35=0|34=23|49=S2TDMA|52=20170119-10:20:14.725|56=KOTAKS2T|10=004|
20170119-10:20:43.351 : 8=FIX.4.2|9=58|35=0|34=25|52=20170119-10:20:43.213|49=KOTAKS2T|56=S2TDMA|10=000|
20170119-10:21:11.998 : 8=FIX.4.2|9=58|35=0|34=24|49=S2TDMA|52=20170119-10:20:45.410|56=KOTAKS2T|10=000|
20170119-10:21:13.606 : 8=FIX.4.2|9=58|35=0|34=26|52=20170119-10:21:13.214|49=KOTAKS2T|56=S2TDMA|10=000|
20170119-10:21:15.733 : 8=FIX.4.2|9=58|35=0|34=25|49=S2TDMA|52=20170119-10:21:15.732|56=KOTAKS2T|10=006|
20170119-10:32:08.569 : 8=FIX.4.2|9=70|35=A|34=26|49=S2TDMA|52=20170119-10:32:08.553|56=KOTAKS2T|98=0|108=30|10=048|
20170119-10:32:09.085 : 8=FIX.4.2|9=70|35=A|34=27|52=20170119-10:32:08.984|49=KOTAKS2T|56=S2TDMA|98=0|108=30|10=057|
20170119-10:32:39.158 : 8=FIX.4.2|9=58|35=0|34=28|52=20170119-10:32:38.985|49=KOTAKS2T|56=S2TDMA|10=026|
20170119-10:32:39.776 : 8=FIX.4.2|9=58|35=0|34=27|49=S2TDMA|52=20170119-10:32:39.604|56=KOTAKS2T|10=014|
20170119-10:33:00.349 : 8=FIX.4.2|9=156|35=D|34=28|49=S2TDMA|52=20170119-10:33:00.341|56=KOTAKS2T|1=D2|11=0|21=1|38=1|40=2|44=8695|54=1|55=NIFTY|60=20170119-10:33:00.292|100=NS|167=FUT|432=201701|10=015|
20170119-10:33:01.149 : 8=FIX.4.2|9=270|35=8|34=29|52=20170119-10:33:00.649|49=KOTAKS2T|56=S2TDMA|39=8|20=0|150=8|11=0|1=D2|21=1|54=1|55=NIFTY|59=0|167=FUT|200=201612|37=170119000015838|58=Order Id already exists|40=2|38=1|44=8695.00|14=0|151=0|32=0|31=0.00|6=0.0000|60=20170119-10:33:00.649|17=17011900000005|10=153|
20170119-10:57:54.502 : 8=FIX.4.2|9=70|35=A|34=29|49=S2TDMA|52=20170119-10:57:54.481|56=KOTAKS2T|98=0|108=30|10=059|
20170119-10:57:54.914 : 8=FIX.4.2|9=70|35=A|34=30|52=20170119-10:57:54.772|49=KOTAKS2T|56=S2TDMA|98=0|108=30|10=054|
20170119-10:58:26.448 : 8=FIX.4.2|9=58|35=0|34=30|49=S2TDMA|52=20170119-10:58:26.447|56=KOTAKS2T|10=017|
20170119-10:58:26.449 : 8=FIX.4.2|9=58|35=0|34=31|52=20170119-10:58:24.772|49=KOTAKS2T|56=S2TDMA|10=017|
20170119-10:58:42.455 : 8=FIX.4.2|9=171|35=D|34=31|49=S2TDMA|52=20170119-10:58:42.451|56=KOTAKS2T|1=D2|11=0|21=1|38=1|40=2|44=25.7|54=1|55=NIFTY|60=20170119-10:58:42.435|100=NS|167=OPT|200=201706|201=0|202=3600|10=175|
20170119-10:58:44.749 : 8=FIX.4.2|9=268|35=8|34=32|52=20170119-10:58:42.583|49=KOTAKS2T|56=S2TDMA|39=8|20=0|150=8|11=0|1=D2|21=1|54=1|55=NIFTY|59=0|167=FUT|200=201612|37=170119000019204|58=Order Id already exists|40=2|38=1|44=25.70|14=0|151=0|32=0|31=0.00|6=0.0000|60=20170119-10:58:42.583|17=17011900000006|10=056|
20170119-10:59:12.553 : 8=FIX.4.2|9=58|35=0|34=32|49=S2TDMA|52=20170119-10:59:12.553|56=KOTAKS2T|10=013|
20170119-10:59:12.786 : 8=FIX.4.2|9=58|35=0|34=33|52=20170119-10:59:12.584|49=KOTAKS2T|56=S2TDMA|10=018|
20170119-11:06:56.188 : 8=FIX.4.2|9=70|35=A|34=33|49=S2TDMA|52=20170119-11:06:56.169|56=KOTAKS2T|98=0|108=30|10=054|
20170119-11:06:56.639 : 8=FIX.4.2|9=70|35=A|34=34|52=20170119-11:06:56.500|49=KOTAKS2T|56=S2TDMA|98=0|108=30|10=044|
20170119-11:07:26.269 : 8=FIX.4.2|9=58|35=0|34=34|49=S2TDMA|52=20170119-11:07:26.265|56=KOTAKS2T|10=014|
20170119-11:07:26.990 : 8=FIX.4.2|9=58|35=0|34=35|52=20170119-11:07:26.501|49=KOTAKS2T|56=S2TDMA|10=008|
20170119-11:07:55.237 : 8=FIX.4.2|9=170|35=D|34=35|49=S2TDMA|52=20170119-11:07:55.234|56=KOTAKS2T|1=D2|11=18|21=1|38=1|40=2|44=63|54=1|55=NIFTY|60=20170119-11:07:55.225|100=NS|167=OPT|200=201703|201=0|202=7300|10=128|
20170119-11:07:55.451 : 8=FIX.4.2|9=217|35=8|34=36|52=20170119-11:07:55.351|49=KOTAKS2T|56=S2TDMA|39=A|20=0|150=A|11=18|21=1|54=1|55=INFY|59=0|37=170119000019400|40=2|38=1|44=63.00|14=0|151=1|32=0|31=0.00|6=0.0000|60=20170119-11:07:55.351|17=17011900000007|10=054|
20170119-11:07:55.459 : 8=FIX.4.2|9=244|35=8|34=37|52=20170119-11:07:55.351|49=KOTAKS2T|56=S2TDMA|39=8|20=0|150=8|11=18|21=1|54=1|55=INFY|59=0|37=170119000019400|58=Order Id already exists|40=2|38=1|44=63.00|14=0|151=0|32=0|31=0.00|6=0.0000|60=20170119-11:07:55.351|17=17011900000008|10=091|
20170119-11:08:25.555 : 8=FIX.4.2|9=58|35=0|34=36|49=S2TDMA|52=20170119-11:08:25.552|56=KOTAKS2T|10=015|
20170119-11:08:25.555 : 8=FIX.4.2|9=58|35=0|34=38|52=20170119-11:08:25.352|49=KOTAKS2T|56=S2TDMA|10=015|
20170119-11:08:49.876 : 8=FIX.4.2|9=170|35=D|34=37|49=S2TDMA|52=20170119-11:08:49.873|56=KOTAKS2T|1=D2|11=19|21=1|38=1|40=2|44=63|54=1|55=NIFTY|60=20170119-11:08:49.869|100=NS|167=OPT|200=201703|201=0|202=7300|10=162|
20170119-11:08:50.963 : 8=FIX.4.2|9=257|35=8|34=39|52=20170119-11:08:50.031|49=KOTAKS2T|56=S2TDMA|39=A|20=0|150=A|11=19|1=D2|21=1|54=1|55=NIFTY|59=0|167=OPT|201=0|202=7300|200=201703|37=170119000019447|40=2|38=1|44=63.00|14=0|151=1|32=0|31=0.00|6=0.0000|60=20170119-11:08:50.031|17=17011900000009|10=219|
20170119-11:08:51.443 : 8=FIX.4.2|9=395|35=8|34=40|52=20170119-11:08:50.033|49=KOTAKS2T|56=S2TDMA|39=8|20=0|150=8|11=19|1=D2|21=1|54=1|55=NIFTY|59=0|167=OPT|201=0|202=7300|200=201703|37=170119000019447|58=RMS:Rule: Check circuit limit including square off order exceeds  for entity account-D2 across exchange across segment across product |40=2|38=1|44=63.00|14=0|151=0|32=0|31=0.00|6=0.0000|60=20170119-11:08:50.033|17=17011900000010|10=138|
20170119-11:08:51.698 : 8=FIX.4.2|9=170|35=D|34=38|49=S2TDMA|52=20170119-11:08:51.694|56=KOTAKS2T|1=D2|11=20|21=1|38=1|40=2|44=63|54=1|55=NIFTY|60=20170119-11:08:51.693|100=NS|167=OPT|200=201703|201=0|202=7300|10=137|
20170119-11:08:52.766 : 8=FIX.4.2|9=218|35=8|34=41|52=20170119-11:08:51.825|49=KOTAKS2T|56=S2TDMA|39=A|20=0|150=A|11=20|21=1|54=1|55=NIFTY|59=0|37=170119000019448|40=2|38=1|44=63.00|14=0|151=1|32=0|31=0.00|6=0.0000|60=20170119-11:08:51.825|17=17011900000011|10=141|
20170119-11:08:52.989 : 8=FIX.4.2|9=245|35=8|34=42|52=20170119-11:08:51.826|49=KOTAKS2T|56=S2TDMA|39=8|20=0|150=8|11=20|21=1|54=1|55=NIFTY|59=0|37=170119000019448|58=Order Id already exists|40=2|38=1|44=63.00|14=0|151=0|32=0|31=0.00|6=0.0000|60=20170119-11:08:51.825|17=17011900000012|10=179|
20170119-11:08:53.392 : 8=FIX.4.2|9=170|35=D|34=39|49=S2TDMA|52=20170119-11:08:53.390|56=KOTAKS2T|1=D2|11=21|21=1|38=1|40=2|44=63|54=1|55=NIFTY|60=20170119-11:08:53.390|100=NS|167=OPT|200=201703|201=0|202=7300|10=130|
20170119-11:08:53.898 : 8=FIX.4.2|9=235|35=8|34=43|52=20170119-11:08:53.729|49=KOTAKS2T|56=S2TDMA|39=A|20=0|150=A|11=21|21=1|54=1|55=DLF|59=0|167=FUT|200=201612|37=170119000019453|40=2|38=1|44=63.00|14=0|151=1|32=0|31=0.00|6=0.0000|60=20170119-11:08:53.729|17=17011900000013|10=170|
20170119-11:08:53.902 : 8=FIX.4.2|9=262|35=8|34=44|52=20170119-11:08:53.730|49=KOTAKS2T|56=S2TDMA|39=8|20=0|150=8|11=21|21=1|54=1|55=DLF|59=0|167=FUT|200=201612|37=170119000019453|58=Order Id already exists|40=2|38=1|44=63.00|14=0|151=0|32=0|31=0.00|6=0.0000|60=20170119-11:08:53.730|17=17011900000014|10=191|
20170119-11:09:05.703 : 8=FIX.4.2|9=170|35=D|34=40|49=S2TDMA|52=20170119-11:09:05.701|56=KOTAKS2T|1=D2|11=22|21=1|38=1|40=2|44=63|54=1|55=NIFTY|60=20170119-11:09:05.701|100=NS|167=OPT|200=201703|201=0|202=7300|10=111|
20170119-11:09:05.943 : 8=FIX.4.2|9=240|35=8|34=45|52=20170119-11:09:05.818|49=KOTAKS2T|56=S2TDMA|39=A|20=0|150=A|11=22|1=D2|21=1|54=1|55=DLF|59=0|167=FUT|200=201612|37=170119000019464|40=2|38=1|44=63.00|14=0|151=1|32=0|31=0.00|6=0.0000|60=20170119-11:09:05.818|17=17011900000015|10=140|
20170119-11:09:06.325 : 8=FIX.4.2|9=267|35=8|34=46|52=20170119-11:09:05.818|49=KOTAKS2T|56=S2TDMA|39=8|20=0|150=8|11=22|1=D2|21=1|54=1|55=DLF|59=0|167=FUT|200=201612|37=170119000019464|58=Order Id already exists|40=2|38=1|44=63.00|14=0|151=0|32=0|31=0.00|6=0.0000|60=20170119-11:09:05.818|17=17011900000016|10=186|
20170119-11:09:08.618 : 8=FIX.4.2|9=170|35=D|34=41|49=S2TDMA|52=20170119-11:09:08.612|56=KOTAKS2T|1=D2|11=23|21=1|38=1|40=2|44=63|54=1|55=NIFTY|60=20170119-11:09:08.607|100=NS|167=OPT|200=201703|201=0|202=7300|10=125|
20170119-11:09:09.697 : 8=FIX.4.2|9=242|35=8|34=47|52=20170119-11:09:08.766|49=KOTAKS2T|56=S2TDMA|39=A|20=0|150=A|11=23|1=D2|21=1|54=1|55=NIFTY|59=0|167=FUT|200=201612|37=170119000019465|40=2|38=1|44=63.00|14=0|151=1|32=0|31=0.00|6=0.0000|60=20170119-11:09:08.766|17=17011900000017|10=082|
20170119-11:09:09.807 : 8=FIX.4.2|9=269|35=8|34=48|52=20170119-11:09:08.766|49=KOTAKS2T|56=S2TDMA|39=8|20=0|150=8|11=23|1=D2|21=1|54=1|55=NIFTY|59=0|167=FUT|200=201612|37=170119000019465|58=Order Id already exists|40=2|38=1|44=63.00|14=0|151=0|32=0|31=0.00|6=0.0000|60=20170119-11:09:08.766|17=17011900000018|10=128|
20170119-11:09:10.208 : 8=FIX.4.2|9=170|35=D|34=42|49=S2TDMA|52=20170119-11:09:10.197|56=KOTAKS2T|1=D2|11=24|21=1|38=1|40=2|44=63|54=1|55=NIFTY|60=20170119-11:09:10.189|100=NS|167=OPT|200=201703|201=0|202=7300|10=126|
20170119-11:09:10.780 : 8=FIX.4.2|9=242|35=8|34=49|52=20170119-11:09:10.487|49=KOTAKS2T|56=S2TDMA|39=A|20=0|150=A|11=24|1=D2|21=1|54=1|55=NIFTY|59=0|167=FUT|200=201612|37=170119000019466|40=2|38=1|44=63.00|14=0|151=1|32=0|31=0.00|6=0.0000|60=20170119-11:09:10.487|17=17011900000019|10=074|
20170119-11:09:11.026 : 8=FIX.4.2|9=269|35=8|34=50|52=20170119-11:09:10.487|49=KOTAKS2T|56=S2TDMA|39=8|20=0|150=8|11=24|1=D2|21=1|54=1|55=NIFTY|59=0|167=FUT|200=201612|37=170119000019466|58=Order Id already exists|40=2|38=1|44=63.00|14=0|151=0|32=0|31=0.00|6=0.0000|60=20170119-11:09:10.487|17=17011900000020|10=102|
20170119-11:09:12.404 : 8=FIX.4.2|9=170|35=D|34=43|49=S2TDMA|52=20170119-11:09:12.403|56=KOTAKS2T|1=D2|11=25|21=1|38=1|40=2|44=63|54=1|55=NIFTY|60=20170119-11:09:12.396|100=NS|167=OPT|200=201703|201=0|202=7300|10=122|
20170119-11:09:12.897 : 8=FIX.4.2|9=170|35=D|34=44|49=S2TDMA|52=20170119-11:09:12.896|56=KOTAKS2T|1=D2|11=26|21=1|38=1|40=2|44=63|54=1|55=NIFTY|60=20170119-11:09:12.894|100=NS|167=OPT|200=201703|201=0|202=7300|10=143|
20170119-11:09:13.287 : 8=FIX.4.2|9=257|35=8|34=51|52=20170119-11:09:12.842|49=KOTAKS2T|56=S2TDMA|39=A|20=0|150=A|11=25|1=D2|21=1|54=1|55=NIFTY|59=0|167=OPT|201=0|202=7300|200=201703|37=170119000019473|40=2|38=1|44=63.00|14=0|151=1|32=0|31=0.00|6=0.0000|60=20170119-11:09:12.842|17=17011900000021|10=221|
20170119-11:09:13.732 : 8=FIX.4.2|9=395|35=8|34=52|52=20170119-11:09:12.842|49=KOTAKS2T|56=S2TDMA|39=8|20=0|150=8|11=25|1=D2|21=1|54=1|55=NIFTY|59=0|167=OPT|201=0|202=7300|200=201703|37=170119000019473|58=RMS:Rule: Check circuit limit including square off order exceeds  for entity account-D2 across exchange across segment across product |40=2|38=1|44=63.00|14=0|151=0|32=0|31=0.00|6=0.0000|60=20170119-11:09:12.842|17=17011900000022|10=154|
20170119-11:09:13.931 : 8=FIX.4.2|9=257|35=8|34=53|52=20170119-11:09:13.103|49=KOTAKS2T|56=S2TDMA|39=A|20=0|150=A|11=26|1=D2|21=1|54=1|55=NIFTY|59=0|167=OPT|201=0|202=7300|200=201703|37=170119000019474|40=2|38=1|44=63.00|14=0|151=1|32=0|31=0.00|6=0.0000|60=20170119-11:09:13.103|17=17011900000023|10=209|
20170119-11:09:13.982 : 8=FIX.4.2|9=395|35=8|34=54|52=20170119-11:09:13.103|49=KOTAKS2T|56=S2TDMA|39=8|20=0|150=8|11=26|1=D2|21=1|54=1|55=NIFTY|59=0|167=OPT|201=0|202=7300|200=201703|37=170119000019474|58=RMS:Rule: Check circuit limit including square off order exceeds  for entity account-D2 across exchange across segment across product |40=2|38=1|44=63.00|14=0|151=0|32=0|31=0.00|6=0.0000|60=20170119-11:09:13.103|17=17011900000024|10=142|
20170119-11:09:14.142 : 8=FIX.4.2|9=170|35=D|34=45|49=S2TDMA|52=20170119-11:09:14.133|56=KOTAKS2T|1=D2|11=27|21=1|38=1|40=2|44=63|54=1|55=NIFTY|60=20170119-11:09:14.127|100=NS|167=OPT|200=201703|201=0|202=7300|10=122|
20170119-11:09:14.581 : 8=FIX.4.2|9=257|35=8|34=55|52=20170119-11:09:14.415|49=KOTAKS2T|56=S2TDMA|39=A|20=0|150=A|11=27|1=D2|21=1|54=1|55=NIFTY|59=0|167=OPT|201=0|202=7300|200=201703|37=170119000019475|40=2|38=1|44=63.00|14=0|151=1|32=0|31=0.00|6=0.0000|60=20170119-11:09:14.415|17=17011900000025|10=229|
20170119-11:09:14.990 : 8=FIX.4.2|9=395|35=8|34=56|52=20170119-11:09:14.415|49=KOTAKS2T|56=S2TDMA|39=8|20=0|150=8|11=27|1=D2|21=1|54=1|55=NIFTY|59=0|167=OPT|201=0|202=7300|200=201703|37=170119000019475|58=RMS:Rule: Check circuit limit including square off order exceeds  for entity account-D2 across exchange across segment across product |40=2|38=1|44=63.00|14=0|151=0|32=0|31=0.00|6=0.0000|60=20170119-11:09:14.415|17=17011900000026|10=162|
20170119-11:09:50.639 : 8=FIX.4.2|9=58|35=0|34=46|49=S2TDMA|52=20170119-11:09:44.464|56=KOTAKS2T|10=020|
20170119-11:09:50.639 : 8=FIX.4.2|9=58|35=0|34=57|52=20170119-11:09:44.416|49=KOTAKS2T|56=S2TDMA|10=019|
20170119-11:10:08.901 : 8=FIX.4.2|9=170|35=D|34=47|49=S2TDMA|52=20170119-11:10:08.870|56=KOTAKS2T|1=D2|11=28|21=1|38=1|40=2|44=63|54=2|55=NIFTY|60=20170119-11:10:08.868|100=NS|167=OPT|200=201703|201=0|202=7300|10=136|
20170119-11:10:10.435 : 8=FIX.4.2|9=257|35=8|34=58|52=20170119-11:10:09.250|49=KOTAKS2T|56=S2TDMA|39=A|20=0|150=A|11=28|1=D2|21=1|54=2|55=NIFTY|59=0|167=OPT|201=0|202=7300|200=201703|37=170119000019516|40=2|38=1|44=63.00|14=0|151=1|32=0|31=0.00|6=0.0000|60=20170119-11:10:09.250|17=17011900000027|10=218|
20170119-11:10:10.438 : 8=FIX.4.2|9=395|35=8|34=59|52=20170119-11:10:09.250|49=KOTAKS2T|56=S2TDMA|39=8|20=0|150=8|11=28|1=D2|21=1|54=2|55=NIFTY|59=0|167=OPT|201=0|202=7300|200=201703|37=170119000019516|58=RMS:Rule: Check circuit limit including square off order exceeds  for entity account-D2 across exchange across segment across product |40=2|38=1|44=63.00|14=0|151=0|32=0|31=0.00|6=0.0000|60=20170119-11:10:09.250|17=17011900000028|10=151|
20170119-15:24:53.228 : 8=FIX.4.2|9=70|35=A|34=48|49=S2TDMA|52=20170119-15:24:53.210|56=KOTAKS2T|98=0|108=30|10=048|
20170119-15:24:53.927 : 8=FIX.4.2|9=70|35=A|34=60|52=20170119-15:24:53.705|49=KOTAKS2T|56=S2TDMA|98=0|108=30|10=051|
20170119-15:25:23.691 : 8=FIX.4.2|9=58|35=0|34=49|49=S2TDMA|52=20170119-15:25:23.691|56=KOTAKS2T|10=024|
20170119-15:25:23.819 : 8=FIX.4.2|9=58|35=0|34=61|52=20170119-15:25:23.710|49=KOTAKS2T|56=S2TDMA|10=010|
20170119-15:25:54.609 : 8=FIX.4.2|9=58|35=0|34=62|52=20170119-15:25:53.711|49=KOTAKS2T|56=S2TDMA|10=015|
20170119-15:25:54.611 : 8=FIX.4.2|9=58|35=0|34=50|49=S2TDMA|52=20170119-15:25:54.611|56=KOTAKS2T|10=012|
20170119-15:26:07.549 : 8=FIX.4.2|9=157|35=D|34=51|49=S2TDMA|52=20170119-15:26:07.545|56=KOTAKS2T|1=D2|11=29|21=1|38=1|40=2|44=8488|54=1|55=NIFTY|60=20170119-15:26:07.522|100=NS|167=FUT|200=201701|10=094|
20170119-15:26:08.352 : 8=FIX.4.2|9=244|35=8|34=63|52=20170119-15:26:07.839|49=KOTAKS2T|56=S2TDMA|39=A|20=0|150=A|11=29|1=D2|21=1|54=1|55=NIFTY|59=0|167=FUT|200=201701|37=170119000019666|40=2|38=1|44=8488.00|14=0|151=1|32=0|31=0.00|6=0.0000|60=20170119-15:26:07.839|17=17011900000029|10=214|
20170119-15:26:09.153 : 8=FIX.4.2|9=313|35=8|34=64|52=20170119-15:26:07.913|49=KOTAKS2T|56=S2TDMA|39=8|20=0|150=8|11=29|1=D2|21=1|54=1|55=NIFTY|59=0|167=FUT|200=201701|37=170119000019666|58=RMS:Rule: Clientwise position limit, OI Limit Not Found for NIFTY|40=2|38=1|44=8488.00|14=0|151=0|32=0|31=0.00|6=0.0000|60=20170119-15:26:07.913|17=17011900000030|10=224|
20170119-15:50:43.879 : 8=FIX.4.2|9=70|35=A|34=52|49=S2TDMA|52=20170119-15:50:43.863|56=KOTAKS2T|98=0|108=30|10=055|
20170119-15:50:44.610 : 8=FIX.4.2|9=70|35=A|34=65|52=20170119-15:50:44.397|49=KOTAKS2T|56=S2TDMA|98=0|108=30|10=062|
20170119-15:51:14.498 : 8=FIX.4.2|9=58|35=0|34=66|52=20170119-15:51:14.398|49=KOTAKS2T|56=S2TDMA|10=026|
20170119-15:51:14.507 : 8=FIX.4.2|9=58|35=0|34=53|49=S2TDMA|52=20170119-15:51:14.504|56=KOTAKS2T|10=011|
20170119-15:51:44.804 : 8=FIX.4.2|9=58|35=0|34=54|49=S2TDMA|52=20170119-15:51:44.525|56=KOTAKS2T|10=018|
20170119-15:51:45.059 : 8=FIX.4.2|9=58|35=0|34=67|52=20170119-15:51:44.399|49=KOTAKS2T|56=S2TDMA|10=031|
20170119-15:51:47.307 : 8=FIX.4.2|9=158|35=D|34=55|49=S2TDMA|52=20170119-15:51:47.304|56=KOTAKS2T|1=D2|11=30|21=1|38=75|40=2|44=8434|54=1|55=NIFTY|60=20170119-15:51:47.296|100=NS|167=FUT|200=201701|10=146|
20170119-15:51:47.972 : 8=FIX.4.2|9=246|35=8|34=68|52=20170119-15:51:47.579|49=KOTAKS2T|56=S2TDMA|39=A|20=0|150=A|11=30|1=D2|21=1|54=1|55=NIFTY|59=0|167=FUT|200=201701|37=170119000019667|40=2|38=75|44=8434.00|14=0|151=75|32=0|31=0.00|6=0.0000|60=20170119-15:51:47.579|17=17011900000031|10=066|
20170119-15:51:48.135 : 8=FIX.4.2|9=314|35=8|34=69|52=20170119-15:51:47.581|49=KOTAKS2T|56=S2TDMA|39=8|20=0|150=8|11=30|1=D2|21=1|54=1|55=NIFTY|59=0|167=FUT|200=201701|37=170119000019667|58=RMS:Rule: Clientwise position limit, OI Limit Not Found for NIFTY|40=2|38=75|44=8434.00|14=0|151=0|32=0|31=0.00|6=0.0000|60=20170119-15:51:47.581|17=17011900000032|10=025|
20170119-15:52:17.688 : 8=FIX.4.2|9=58|35=0|34=56|49=S2TDMA|52=20170119-15:52:17.508|56=KOTAKS2T|10=022|
20170119-15:52:17.690 : 8=FIX.4.2|9=58|35=0|34=70|52=20170119-15:52:17.582|49=KOTAKS2T|56=S2TDMA|10=020|
20170119-15:52:47.999 : 8=FIX.4.2|9=58|35=0|34=71|52=20170119-15:52:47.582|49=KOTAKS2T|56=S2TDMA|10=024|
20170119-15:52:48.372 : 8=FIX.4.2|9=58|35=0|34=57|49=S2TDMA|52=20170119-15:52:48.371|56=KOTAKS2T|10=025|
20170119-15:53:17.740 : 8=FIX.4.2|9=58|35=0|34=72|52=20170119-15:53:17.582|49=KOTAKS2T|56=S2TDMA|10=023|
20170119-15:53:19.567 : 8=FIX.4.2|9=58|35=0|34=58|49=S2TDMA|52=20170119-15:53:19.005|56=KOTAKS2T|10=019|
20170119-15:53:47.868 : 8=FIX.4.2|9=58|35=0|34=73|52=20170119-15:53:47.583|49=KOTAKS2T|56=S2TDMA|10=028|
20170119-15:53:49.946 : 8=FIX.4.2|9=58|35=0|34=59|49=S2TDMA|52=20170119-15:53:49.940|56=KOTAKS2T|10=031|
20170119-15:54:17.760 : 8=FIX.4.2|9=58|35=0|34=74|52=20170119-15:54:17.584|49=KOTAKS2T|56=S2TDMA|10=028|
20170119-15:54:20.358 : 8=FIX.4.2|9=58|35=0|34=60|49=S2TDMA|52=20170119-15:54:20.302|56=KOTAKS2T|10=005|
20170119-15:54:47.723 : 8=FIX.4.2|9=58|35=0|34=75|52=20170119-15:54:47.585|49=KOTAKS2T|56=S2TDMA|10=033|
20170119-15:54:51.995 : 8=FIX.4.2|9=58|35=0|34=61|49=S2TDMA|52=20170119-15:54:51.361|56=KOTAKS2T|10=015|
20170119-15:55:17.686 : 8=FIX.4.2|9=58|35=0|34=76|52=20170119-15:55:17.585|49=KOTAKS2T|56=S2TDMA|10=032|
20170119-15:55:21.917 : 8=FIX.4.2|9=58|35=0|34=62|49=S2TDMA|52=20170119-15:55:21.913|56=KOTAKS2T|10=017|
20170119-15:55:48.677 : 8=FIX.4.2|9=58|35=0|34=77|52=20170119-15:55:47.585|49=KOTAKS2T|56=S2TDMA|10=036|
20170119-15:55:53.083 : 8=FIX.4.2|9=58|35=0|34=63|49=S2TDMA|52=20170119-15:55:52.938|56=KOTAKS2T|10=029|
20170119-15:56:18.359 : 8=FIX.4.2|9=58|35=0|34=78|52=20170119-15:56:17.586|49=KOTAKS2T|56=S2TDMA|10=036|
20170119-15:56:24.203 : 8=FIX.4.2|9=58|35=0|34=64|49=S2TDMA|52=20170119-15:56:23.282|56=KOTAKS2T|10=021|
20170119-15:56:31.863 : 8=FIX.4.2|9=159|35=D|34=65|49=S2TDMA|52=20170119-15:56:31.862|56=KOTAKS2T|1=D2|11=31|21=1|38=5000|40=2|44=132.5|54=1|55=DLF|60=20170119-15:56:31.861|100=NS|167=FUT|200=201701|10=099|
20170119-15:56:32.590 : 8=FIX.4.2|9=247|35=8|34=79|52=20170119-15:56:32.091|49=KOTAKS2T|56=S2TDMA|39=A|20=0|150=A|11=31|1=D2|21=1|54=1|55=DLF|59=0|167=FUT|200=201701|37=170119000019668|40=2|38=5000|44=132.50|14=0|151=5000|32=0|31=0.00|6=0.0000|60=20170119-15:56:32.091|17=17011900000033|10=247|
20170119-15:56:32.593 : 8=FIX.4.2|9=418|35=8|34=80|52=20170119-15:56:32.092|49=KOTAKS2T|56=S2TDMA|39=8|20=0|150=8|11=31|1=D2|21=1|54=1|55=DLF|59=0|167=FUT|200=201701|37=170119000019668|58=RMS:Rule: Order Value limit including square off order,Current:3312500000.00, limit set:100000000.00  for entity account-D2 across exchange across segment across product |40=2|38=5000|44=132.50|14=0|151=0|32=0|31=0.00|6=0.0000|60=20170119-15:56:32.092|17=17011900000034|10=082|
20170206-08:25:34.614 : 8=FIX.4.2|9=69|35=A|34=1|49=S2TDMA|52=20170206-08:25:34.598|56=KOTAKS2T|98=0|108=30|10=015|
20170206-08:25:34.833 : 8=FIX.4.2|9=69|35=A|34=1|52=20170206-08:25:34.669|49=KOTAKS2T|56=S2TDMA|98=0|108=30|10=014|
20170206-08:26:05.029 : 8=FIX.4.2|9=57|35=0|34=2|49=S2TDMA|52=20170206-08:26:04.825|56=KOTAKS2T|10=218|
20170206-08:26:05.030 : 8=FIX.4.2|9=68|35=1|34=2|52=20170206-08:26:04.670|49=KOTAKS2T|56=S2TDMA|112=Prasad|10=008|
20170206-08:26:05.033 : 8=FIX.4.2|9=68|35=0|34=3|49=S2TDMA|52=20170206-08:26:05.032|56=KOTAKS2T|112=Prasad|10=001|
20170206-08:26:34.978 : 8=FIX.4.2|9=57|35=0|34=3|52=20170206-08:26:34.671|49=KOTAKS2T|56=S2TDMA|10=221|
20170206-08:26:35.386 : 8=FIX.4.2|9=68|35=1|34=4|52=20170206-08:26:35.148|49=KOTAKS2T|56=S2TDMA|112=Prasad|10=014|
20170206-08:26:35.388 : 8=FIX.4.2|9=68|35=0|34=4|49=S2TDMA|52=20170206-08:26:35.386|56=KOTAKS2T|112=Prasad|10=017|
20170206-08:27:05.319 : 8=FIX.4.2|9=57|35=0|34=5|52=20170206-08:27:05.149|49=KOTAKS2T|56=S2TDMA|10=222|
20170206-08:27:05.676 : 8=FIX.4.2|9=68|35=1|34=6|52=20170206-08:27:05.516|49=KOTAKS2T|56=S2TDMA|112=Prasad|10=013|
20170206-08:27:05.676 : 8=FIX.4.2|9=68|35=0|34=5|49=S2TDMA|52=20170206-08:27:05.676|56=KOTAKS2T|112=Prasad|10=018|
20170206-08:27:35.676 : 8=FIX.4.2|9=57|35=0|34=7|52=20170206-08:27:35.517|49=KOTAKS2T|56=S2TDMA|10=226|
20170206-08:27:35.693 : 8=FIX.4.2|9=57|35=0|34=6|49=S2TDMA|52=20170206-08:27:35.676|56=KOTAKS2T|10=231|
20170206-08:27:35.896 : 8=FIX.4.2|9=68|35=1|34=8|52=20170206-08:27:35.732|49=KOTAKS2T|56=S2TDMA|112=Prasad|10=018|
20170206-08:27:35.896 : 8=FIX.4.2|9=68|35=0|34=7|49=S2TDMA|52=20170206-08:27:35.896|56=KOTAKS2T|112=Prasad|10=027|
20170206-08:28:05.895 : 8=FIX.4.2|9=57|35=0|34=9|52=20170206-08:28:05.733|49=KOTAKS2T|56=S2TDMA|10=226|
20170206-08:28:06.114 : 8=FIX.4.2|9=69|35=1|34=10|52=20170206-08:28:05.956|49=KOTAKS2T|56=S2TDMA|112=Prasad|10=066|
20170206-08:28:06.114 : 8=FIX.4.2|9=68|35=0|34=8|49=S2TDMA|52=20170206-08:28:06.114|56=KOTAKS2T|112=Prasad|10=010|
20170206-08:28:36.114 : 8=FIX.4.2|9=58|35=0|34=11|52=20170206-08:28:35.957|49=KOTAKS2T|56=S2TDMA|10=023|
20170206-08:28:36.130 : 8=FIX.4.2|9=57|35=0|34=9|49=S2TDMA|52=20170206-08:28:36.114|56=KOTAKS2T|10=223|
20170206-08:29:06.125 : 8=FIX.4.2|9=58|35=0|34=12|52=20170206-08:29:05.957|49=KOTAKS2T|56=S2TDMA|10=022|
20170206-08:29:06.129 : 8=FIX.4.2|9=58|35=0|34=10|49=S2TDMA|52=20170206-08:29:06.127|56=KOTAKS2T|10=010|
20170206-08:29:36.124 : 8=FIX.4.2|9=58|35=0|34=13|52=20170206-08:29:35.958|49=KOTAKS2T|56=S2TDMA|10=027|
20170206-08:29:36.344 : 8=FIX.4.2|9=69|35=1|34=14|52=20170206-08:29:36.177|49=KOTAKS2T|56=S2TDMA|112=Prasad|10=070|
20170206-08:29:36.345 : 8=FIX.4.2|9=69|35=0|34=11|49=S2TDMA|52=20170206-08:29:36.344|56=KOTAKS2T|112=Prasad|10=062|
20170206-08:30:06.348 : 8=FIX.4.2|9=58|35=0|34=15|52=20170206-08:30:06.178|49=KOTAKS2T|56=S2TDMA|10=013|
20170206-08:30:06.348 : 8=FIX.4.2|9=58|35=0|34=12|49=S2TDMA|52=20170206-08:30:06.348|56=KOTAKS2T|10=009|
20170206-08:30:36.356 : 8=FIX.4.2|9=58|35=0|34=16|52=20170206-08:30:36.179|49=KOTAKS2T|56=S2TDMA|10=018|
20170206-08:30:36.362 : 8=FIX.4.2|9=58|35=0|34=13|49=S2TDMA|52=20170206-08:30:36.359|56=KOTAKS2T|10=015|
20170206-08:30:36.573 : 8=FIX.4.2|9=69|35=1|34=17|52=20170206-08:30:36.396|49=KOTAKS2T|56=S2TDMA|112=Prasad|10=068|
20170206-08:30:36.576 : 8=FIX.4.2|9=69|35=0|34=14|49=S2TDMA|52=20170206-08:30:36.575|56=KOTAKS2T|112=Prasad|10=063|
20170206-08:31:06.574 : 8=FIX.4.2|9=58|35=0|34=18|52=20170206-08:31:06.397|49=KOTAKS2T|56=S2TDMA|10=020|
20170206-08:31:06.578 : 8=FIX.4.2|9=58|35=0|34=15|49=S2TDMA|52=20170206-08:31:06.576|56=KOTAKS2T|10=016|
20170206-08:31:36.576 : 8=FIX.4.2|9=58|35=0|34=19|52=20170206-08:31:36.398|49=KOTAKS2T|56=S2TDMA|10=025|
20170206-08:31:36.584 : 8=FIX.4.2|9=58|35=0|34=16|49=S2TDMA|52=20170206-08:31:36.581|56=KOTAKS2T|10=016|
20170206-08:31:36.792 : 8=FIX.4.2|9=69|35=1|34=20|52=20170206-08:31:36.617|49=KOTAKS2T|56=S2TDMA|112=Prasad|10=059|
20170206-08:31:36.795 : 8=FIX.4.2|9=69|35=0|34=17|49=S2TDMA|52=20170206-08:31:36.794|56=KOTAKS2T|112=Prasad|10=070|
20170206-08:32:06.793 : 8=FIX.4.2|9=58|35=0|34=21|52=20170206-08:32:06.617|49=KOTAKS2T|56=S2TDMA|10=010|
20170206-08:32:06.796 : 8=FIX.4.2|9=58|35=0|34=18|49=S2TDMA|52=20170206-08:32:06.795|56=KOTAKS2T|10=023|
20170206-08:32:07.010 : 8=FIX.4.2|9=69|35=1|34=22|52=20170206-08:32:06.836|49=KOTAKS2T|56=S2TDMA|112=Prasad|10=062|
20170206-08:32:07.012 : 8=FIX.4.2|9=69|35=0|34=19|49=S2TDMA|52=20170206-08:32:07.011|56=KOTAKS2T|112=Prasad|10=053|
20170206-08:32:37.021 : 8=FIX.4.2|9=58|35=0|34=23|52=20170206-08:32:36.836|49=KOTAKS2T|56=S2TDMA|10=018|
20170206-08:32:37.023 : 8=FIX.4.2|9=58|35=0|34=20|49=S2TDMA|52=20170206-08:32:37.022|56=KOTAKS2T|10=003|
20170206-08:33:07.204 : 8=FIX.4.2|9=58|35=0|34=24|52=20170206-08:33:06.837|49=KOTAKS2T|56=S2TDMA|10=018|
20170206-08:33:07.213 : 8=FIX.4.2|9=58|35=0|34=21|49=S2TDMA|52=20170206-08:33:07.212|56=KOTAKS2T|10=003|
20170206-08:33:07.534 : 8=FIX.4.2|9=69|35=1|34=25|52=20170206-08:33:07.064|49=KOTAKS2T|56=S2TDMA|112=Prasad|10=060|
20170206-08:33:07.536 : 8=FIX.4.2|9=69|35=0|34=22|49=S2TDMA|52=20170206-08:33:07.535|56=KOTAKS2T|112=Prasad|10=059|
20170206-08:33:37.241 : 8=FIX.4.2|9=58|35=0|34=26|52=20170206-08:33:37.064|49=KOTAKS2T|56=S2TDMA|10=016|
20170206-08:33:37.769 : 8=FIX.4.2|9=69|35=1|34=27|52=20170206-08:33:37.596|49=KOTAKS2T|56=S2TDMA|112=Prasad|10=075|
20170206-08:33:37.773 : 8=FIX.4.2|9=69|35=0|34=23|49=S2TDMA|52=20170206-08:33:37.772|56=KOTAKS2T|112=Prasad|10=066|
20170206-08:34:07.770 : 8=FIX.4.2|9=58|35=0|34=28|52=20170206-08:34:07.596|49=KOTAKS2T|56=S2TDMA|10=026|
20170206-08:34:07.987 : 8=FIX.4.2|9=69|35=1|34=29|52=20170206-08:34:07.813|49=KOTAKS2T|56=S2TDMA|112=Prasad|10=067|
20170206-08:34:07.989 : 8=FIX.4.2|9=69|35=0|34=24|49=S2TDMA|52=20170206-08:34:07.988|56=KOTAKS2T|112=Prasad|10=074|
20170206-08:34:37.973 : 8=FIX.4.2|9=58|35=0|34=30|52=20170206-08:34:37.813|49=KOTAKS2T|56=S2TDMA|10=014|
20170206-08:34:37.989 : 8=FIX.4.2|9=58|35=0|34=25|49=S2TDMA|52=20170206-08:34:37.989|56=KOTAKS2T|10=032|
20170206-08:35:07.973 : 8=FIX.4.2|9=58|35=0|34=31|52=20170206-08:35:07.814|49=KOTAKS2T|56=S2TDMA|10=014|
20170206-08:35:08.192 : 8=FIX.4.2|9=69|35=1|34=32|52=20170206-08:35:08.032|49=KOTAKS2T|56=S2TDMA|112=Prasad|10=056|
20170206-08:35:08.192 : 8=FIX.4.2|9=69|35=0|34=26|49=S2TDMA|52=20170206-08:35:08.192|56=KOTAKS2T|112=Prasad|10=065|
20170206-08:35:38.223 : 8=FIX.4.2|9=58|35=0|34=33|52=20170206-08:35:38.032|49=KOTAKS2T|56=S2TDMA|10=012|
20170206-08:35:38.223 : 8=FIX.4.2|9=58|35=0|34=27|49=S2TDMA|52=20170206-08:35:38.223|56=KOTAKS2T|10=017|
20170206-08:35:38.473 : 8=FIX.4.2|9=69|35=1|34=34|52=20170206-08:35:38.319|49=KOTAKS2T|56=S2TDMA|112=Prasad|10=069|
20170206-08:35:38.489 : 8=FIX.4.2|9=69|35=0|34=28|49=S2TDMA|52=20170206-08:35:38.473|56=KOTAKS2T|112=Prasad|10=072|
20170206-08:36:08.489 : 8=FIX.4.2|9=58|35=0|34=35|52=20170206-08:36:08.320|49=KOTAKS2T|56=S2TDMA|10=012|
20170206-08:36:08.489 : 8=FIX.4.2|9=58|35=0|34=29|49=S2TDMA|52=20170206-08:36:08.489|56=KOTAKS2T|10=031|
20170206-08:36:38.505 : 8=FIX.4.2|9=58|35=0|34=36|52=20170206-08:36:38.320|49=KOTAKS2T|56=S2TDMA|10=016|
20170206-08:36:38.505 : 8=FIX.4.2|9=58|35=0|34=30|49=S2TDMA|52=20170206-08:36:38.505|56=KOTAKS2T|10=015|
20170206-08:36:38.708 : 8=FIX.4.2|9=69|35=1|34=37|52=20170206-08:36:38.542|49=KOTAKS2T|56=S2TDMA|112=Prasad|10=071|
20170206-08:36:38.708 : 8=FIX.4.2|9=69|35=0|34=31|49=S2TDMA|52=20170206-08:36:38.708|56=KOTAKS2T|112=Prasad|10=068|
20170206-08:37:08.708 : 8=FIX.4.2|9=58|35=0|34=38|52=20170206-08:37:08.542|49=KOTAKS2T|56=S2TDMA|10=022|
20170206-08:37:08.708 : 8=FIX.4.2|9=58|35=0|34=32|49=S2TDMA|52=20170206-08:37:08.708|56=KOTAKS2T|10=020|
20170206-08:37:38.708 : 8=FIX.4.2|9=58|35=0|34=39|52=20170206-08:37:38.543|49=KOTAKS2T|56=S2TDMA|10=027|
20170206-08:37:38.926 : 8=FIX.4.2|9=69|35=1|34=40|52=20170206-08:37:38.762|49=KOTAKS2T|56=S2TDMA|112=Prasad|10=070|
20170206-08:37:38.926 : 8=FIX.4.2|9=69|35=0|34=33|49=S2TDMA|52=20170206-08:37:38.926|56=KOTAKS2T|112=Prasad|10=073|
20170206-08:38:08.929 : 8=FIX.4.2|9=58|35=0|34=41|52=20170206-08:38:08.762|49=KOTAKS2T|56=S2TDMA|10=021|
20170206-08:38:08.933 : 8=FIX.4.2|9=58|35=0|34=34|49=S2TDMA|52=20170206-08:38:08.932|56=KOTAKS2T|10=022|
20170206-08:38:39.036 : 8=FIX.4.2|9=58|35=0|34=42|52=20170206-08:38:38.763|49=KOTAKS2T|56=S2TDMA|10=026|
20170206-08:38:39.036 : 8=FIX.4.2|9=58|35=0|34=35|49=S2TDMA|52=20170206-08:38:39.036|56=KOTAKS2T|10=022|
20170206-08:38:39.145 : 8=FIX.4.2|9=69|35=1|34=43|52=20170206-08:38:38.981|49=KOTAKS2T|56=S2TDMA|112=Prasad|10=077|
20170206-08:38:39.145 : 8=FIX.4.2|9=69|35=0|34=36|49=S2TDMA|52=20170206-08:38:39.145|56=KOTAKS2T|112=Prasad|10=071|
20170206-08:39:09.395 : 8=FIX.4.2|9=58|35=0|34=44|52=20170206-08:39:08.981|49=KOTAKS2T|56=S2TDMA|10=028|
20170206-08:39:09.395 : 8=FIX.4.2|9=58|35=0|34=37|49=S2TDMA|52=20170206-08:39:09.395|56=KOTAKS2T|10=030|
20170206-08:39:09.536 : 8=FIX.4.2|9=69|35=1|34=45|52=20170206-08:39:09.307|49=KOTAKS2T|56=S2TDMA|112=Prasad|10=070|
20170206-08:39:09.536 : 8=FIX.4.2|9=69|35=0|34=38|49=S2TDMA|52=20170206-08:39:09.536|56=KOTAKS2T|112=Prasad|10=075|
20170206-08:39:39.583 : 8=FIX.4.2|9=58|35=0|34=46|52=20170206-08:39:39.307|49=KOTAKS2T|56=S2TDMA|10=026|
20170206-08:39:39.583 : 8=FIX.4.2|9=58|35=0|34=39|49=S2TDMA|52=20170206-08:39:39.583|56=KOTAKS2T|10=034|
20170206-08:40:09.848 : 8=FIX.4.2|9=58|35=0|34=47|52=20170206-08:40:09.307|49=KOTAKS2T|56=S2TDMA|10=016|
20170206-08:40:09.848 : 8=FIX.4.2|9=58|35=0|34=40|49=S2TDMA|52=20170206-08:40:09.848|56=KOTAKS2T|10=019|
20170206-08:40:09.848 : 8=FIX.4.2|9=69|35=1|34=48|52=20170206-08:40:09.640|49=KOTAKS2T|56=S2TDMA|112=Prasad|10=065|
20170206-08:40:09.848 : 8=FIX.4.2|9=69|35=0|34=41|49=S2TDMA|52=20170206-08:40:09.848|56=KOTAKS2T|112=Prasad|10=067|
20170206-08:40:39.864 : 8=FIX.4.2|9=58|35=0|34=42|49=S2TDMA|52=20170206-08:40:39.864|56=KOTAKS2T|10=022|
20170206-08:40:40.020 : 8=FIX.4.2|9=58|35=0|34=49|52=20170206-08:40:39.640|49=KOTAKS2T|56=S2TDMA|10=021|
20170206-08:40:40.192 : 8=FIX.4.2|9=69|35=1|34=50|52=20170206-08:40:40.019|49=KOTAKS2T|56=S2TDMA|112=Prasad|10=053|
20170206-08:40:40.192 : 8=FIX.4.2|9=69|35=0|34=43|49=S2TDMA|52=20170206-08:40:40.192|56=KOTAKS2T|112=Prasad|10=056|
20170206-08:41:10.239 : 8=FIX.4.2|9=58|35=0|34=51|52=20170206-08:41:10.020|49=KOTAKS2T|56=S2TDMA|10=252|
20170206-08:41:10.239 : 8=FIX.4.2|9=58|35=0|34=44|49=S2TDMA|52=20170206-08:41:10.239|56=KOTAKS2T|10=010|
20170206-08:41:10.645 : 8=FIX.4.2|9=69|35=1|34=52|52=20170206-08:41:10.280|49=KOTAKS2T|56=S2TDMA|112=Prasad|10=053|
20170206-08:41:10.645 : 8=FIX.4.2|9=69|35=0|34=45|49=S2TDMA|52=20170206-08:41:10.645|56=KOTAKS2T|112=Prasad|10=059|
20170206-08:41:40.583 : 8=FIX.4.2|9=58|35=0|34=53|52=20170206-08:41:40.280|49=KOTAKS2T|56=S2TDMA|10=009|
20170206-08:41:40.911 : 8=FIX.4.2|9=69|35=1|34=54|52=20170206-08:41:40.695|49=KOTAKS2T|56=S2TDMA|112=Prasad|10=068|
20170206-08:41:40.911 : 8=FIX.4.2|9=69|35=0|34=46|49=S2TDMA|52=20170206-08:41:40.911|56=KOTAKS2T|112=Prasad|10=059|
20170206-08:42:10.864 : 8=FIX.4.2|9=58|35=0|34=55|52=20170206-08:42:10.695|49=KOTAKS2T|56=S2TDMA|10=019|
20170206-08:42:11.177 : 8=FIX.4.2|9=69|35=1|34=56|52=20170206-08:42:11.014|49=KOTAKS2T|56=S2TDMA|112=Prasad|10=054|
20170206-08:42:11.192 : 8=FIX.4.2|9=69|35=0|34=47|49=S2TDMA|52=20170206-08:42:11.192|56=KOTAKS2T|112=Prasad|10=060|
20170206-08:42:41.241 : 8=FIX.4.2|9=58|35=0|34=57|52=20170206-08:42:41.014|49=KOTAKS2T|56=S2TDMA|10=010|
20170206-08:42:41.244 : 8=FIX.4.2|9=58|35=0|34=48|49=S2TDMA|52=20170206-08:42:41.243|56=KOTAKS2T|10=014|
20170206-08:42:41.535 : 8=FIX.4.2|9=69|35=1|34=58|52=20170206-08:42:41.333|49=KOTAKS2T|56=S2TDMA|112=Prasad|10=063|
20170206-08:42:41.537 : 8=FIX.4.2|9=69|35=0|34=49|49=S2TDMA|52=20170206-08:42:41.536|56=KOTAKS2T|112=Prasad|10=067|
20170206-08:43:11.560 : 8=FIX.4.2|9=58|35=0|34=50|49=S2TDMA|52=20170206-08:43:11.558|56=KOTAKS2T|10=014|
20170206-08:43:11.564 : 8=FIX.4.2|9=58|35=0|34=59|52=20170206-08:43:11.334|49=KOTAKS2T|56=S2TDMA|10=015|
20170206-08:43:37.487 : 8=FIX.4.2|9=161|35=D|34=51|49=S2TDMA|52=20170206-08:43:37.484|56=KOTAKS2T|1=D2|11=43|21=1|38=75|40=2|44=8754|54=1|55=AXISBANK|60=20170206-08:43:37.477|100=NS|167=FUT|200=201701|10=096|
20170206-08:43:38.280 : 8=FIX.4.2|9=249|35=8|34=60|52=20170206-08:43:37.858|49=KOTAKS2T|56=S2TDMA|39=A|20=0|150=A|11=43|1=D2|21=1|54=1|55=AXISBANK|59=0|167=FUT|200=201701|37=170206000024369|40=2|38=75|44=8754.00|14=0|151=75|32=0|31=0.00|6=0.0000|60=20170206-08:43:37.858|17=17020600000001|10=253|
20170206-08:43:38.576 : 8=FIX.4.2|9=268|35=8|34=61|52=20170206-08:43:37.858|49=KOTAKS2T|56=S2TDMA|39=8|20=0|150=8|11=43|1=D2|21=1|54=1|55=AXISBANK|59=0|167=FUT|200=201701|37=170206000024369|58=Symbol not found|40=2|38=75|44=8754.00|14=0|151=0|32=0|31=0.00|6=0.0000|60=20170206-08:43:37.858|17=17020600000002|10=128|
20170206-08:44:07.594 : 8=FIX.4.2|9=58|35=0|34=52|49=S2TDMA|52=20170206-08:44:07.593|56=KOTAKS2T|10=021|
20170206-08:44:08.103 : 8=FIX.4.2|9=58|35=0|34=62|52=20170206-08:44:07.859|49=KOTAKS2T|56=S2TDMA|10=027|
20170206-08:44:37.911 : 8=FIX.4.2|9=69|35=1|34=63|52=20170206-08:44:37.748|49=KOTAKS2T|56=S2TDMA|112=Prasad|10=076|
20170206-08:44:37.926 : 8=FIX.4.2|9=69|35=0|34=53|49=S2TDMA|52=20170206-08:44:37.926|56=KOTAKS2T|112=Prasad|10=072|
20170206-08:45:07.911 : 8=FIX.4.2|9=58|35=0|34=64|52=20170206-08:45:07.750|49=KOTAKS2T|56=S2TDMA|10=020|
20170206-08:45:08.145 : 8=FIX.4.2|9=69|35=1|34=65|52=20170206-08:45:07.969|49=KOTAKS2T|56=S2TDMA|112=Prasad|10=081|
20170206-08:45:08.145 : 8=FIX.4.2|9=69|35=0|34=54|49=S2TDMA|52=20170206-08:45:08.145|56=KOTAKS2T|112=Prasad|10=065|
20170206-08:45:38.098 : 8=FIX.4.2|9=58|35=0|34=66|52=20170206-08:45:37.971|49=KOTAKS2T|56=S2TDMA|10=030|
20170206-08:45:38.458 : 8=FIX.4.2|9=69|35=1|34=67|52=20170206-08:45:38.325|49=KOTAKS2T|56=S2TDMA|112=Prasad|10=073|
20170206-08:45:38.458 : 8=FIX.4.2|9=69|35=0|34=55|49=S2TDMA|52=20170206-08:45:38.458|56=KOTAKS2T|112=Prasad|10=076|
20170206-08:46:08.458 : 8=FIX.4.2|9=58|35=0|34=68|52=20170206-08:46:08.325|49=KOTAKS2T|56=S2TDMA|10=024|
20170206-08:46:08.458 : 8=FIX.4.2|9=58|35=0|34=56|49=S2TDMA|52=20170206-08:46:08.458|56=KOTAKS2T|10=028|
20170206-08:46:08.676 : 8=FIX.4.2|9=69|35=1|34=69|52=20170206-08:46:08.542|49=KOTAKS2T|56=S2TDMA|112=Prasad|10=074|
20170206-08:46:08.676 : 8=FIX.4.2|9=69|35=0|34=57|49=S2TDMA|52=20170206-08:46:08.676|56=KOTAKS2T|112=Prasad|10=078|
20170206-08:46:38.677 : 8=FIX.4.2|9=58|35=0|34=70|52=20170206-08:46:38.543|49=KOTAKS2T|56=S2TDMA|10=022|
20170206-08:46:38.677 : 8=FIX.4.2|9=58|35=0|34=58|49=S2TDMA|52=20170206-08:46:38.677|56=KOTAKS2T|10=036|
20170206-08:47:08.676 : 8=FIX.4.2|9=58|35=0|34=71|52=20170206-08:47:08.543|49=KOTAKS2T|56=S2TDMA|10=021|
20170206-08:47:08.911 : 8=FIX.4.2|9=69|35=1|34=72|52=20170206-08:47:08.775|49=KOTAKS2T|56=S2TDMA|112=Prasad|10=077|
20170206-08:47:08.911 : 8=FIX.4.2|9=69|35=0|34=59|49=S2TDMA|52=20170206-08:47:08.911|56=KOTAKS2T|112=Prasad|10=073|
20170206-08:47:38.911 : 8=FIX.4.2|9=58|35=0|34=73|52=20170206-08:47:38.776|49=KOTAKS2T|56=S2TDMA|10=034|
20170206-08:47:39.177 : 8=FIX.4.2|9=69|35=1|34=74|52=20170206-08:47:39.055|49=KOTAKS2T|56=S2TDMA|112=Prasad|10=074|
20170206-08:47:39.192 : 8=FIX.4.2|9=69|35=0|34=60|49=S2TDMA|52=20170206-08:47:39.192|56=KOTAKS2T|112=Prasad|10=070|
20170206-08:48:09.192 : 8=FIX.4.2|9=58|35=0|34=75|52=20170206-08:48:09.055|49=KOTAKS2T|56=S2TDMA|10=025|
20170206-08:48:09.192 : 8=FIX.4.2|9=58|35=0|34=61|49=S2TDMA|52=20170206-08:48:09.192|56=KOTAKS2T|10=022|
20170206-08:48:09.395 : 8=FIX.4.2|9=69|35=1|34=76|52=20170206-08:48:09.271|49=KOTAKS2T|56=S2TDMA|112=Prasad|10=074|
20170206-08:48:09.395 : 8=FIX.4.2|9=69|35=0|34=62|49=S2TDMA|52=20170206-08:48:09.395|56=KOTAKS2T|112=Prasad|10=075|
20170206-08:48:39.442 : 8=FIX.4.2|9=58|35=0|34=77|52=20170206-08:48:39.272|49=KOTAKS2T|56=S2TDMA|10=031|
20170206-08:48:39.442 : 8=FIX.4.2|9=58|35=0|34=63|49=S2TDMA|52=20170206-08:48:39.442|56=KOTAKS2T|10=025|
20170206-08:48:39.661 : 8=FIX.4.2|9=69|35=1|34=78|52=20170206-08:48:39.525|49=KOTAKS2T|56=S2TDMA|112=Prasad|10=081|
20170206-08:48:39.661 : 8=FIX.4.2|9=69|35=0|34=64|49=S2TDMA|52=20170206-08:48:39.661|56=KOTAKS2T|112=Prasad|10=076|
20170206-08:49:09.661 : 8=FIX.4.2|9=58|35=0|34=79|52=20170206-08:49:09.525|49=KOTAKS2T|56=S2TDMA|10=032|
20170206-08:49:09.661 : 8=FIX.4.2|9=58|35=0|34=65|49=S2TDMA|52=20170206-08:49:09.661|56=KOTAKS2T|10=028|
20170206-08:49:39.661 : 8=FIX.4.2|9=58|35=0|34=80|52=20170206-08:49:39.526|49=KOTAKS2T|56=S2TDMA|10=028|
20170206-08:49:39.661 : 8=FIX.4.2|9=58|35=0|34=66|49=S2TDMA|52=20170206-08:49:39.661|56=KOTAKS2T|10=032|
20170206-08:50:09.661 : 8=FIX.4.2|9=58|35=0|34=81|52=20170206-08:50:09.526|49=KOTAKS2T|56=S2TDMA|10=018|
20170206-08:50:09.880 : 8=FIX.4.2|9=69|35=1|34=82|52=20170206-08:50:09.743|49=KOTAKS2T|56=S2TDMA|112=Prasad|10=068|
20170206-08:50:09.880 : 8=FIX.4.2|9=69|35=0|34=67|49=S2TDMA|52=20170206-08:50:09.880|56=KOTAKS2T|112=Prasad|10=072|
20170206-08:50:39.926 : 8=FIX.4.2|9=58|35=0|34=83|52=20170206-08:50:39.744|49=KOTAKS2T|56=S2TDMA|10=025|
20170206-08:50:39.926 : 8=FIX.4.2|9=58|35=0|34=68|49=S2TDMA|52=20170206-08:50:39.926|56=KOTAKS2T|10=030|
20170206-08:51:09.942 : 8=FIX.4.2|9=58|35=0|34=84|52=20170206-08:51:09.745|49=KOTAKS2T|56=S2TDMA|10=025|
20170206-08:51:09.942 : 8=FIX.4.2|9=58|35=0|34=69|49=S2TDMA|52=20170206-08:51:09.942|56=KOTAKS2T|10=027|
20170206-08:51:28.130 : 8=FIX.4.2|9=70|35=A|34=70|49=S2TDMA|52=20170206-08:51:28.114|56=KOTAKS2T|98=0|108=30|10=047|
20170206-08:51:28.598 : 8=FIX.4.2|9=70|35=A|34=85|52=20170206-08:51:28.393|49=KOTAKS2T|56=S2TDMA|98=0|108=30|10=062|
20170206-08:51:59.255 : 8=FIX.4.2|9=58|35=0|34=71|49=S2TDMA|52=20170206-08:51:59.255|56=KOTAKS2T|10=022|
20170206-08:51:59.395 : 8=FIX.4.2|9=69|35=1|34=86|52=20170206-08:51:58.394|49=KOTAKS2T|56=S2TDMA|112=Prasad|10=079|
20170206-08:51:59.411 : 8=FIX.4.2|9=69|35=0|34=72|49=S2TDMA|52=20170206-08:51:59.395|56=KOTAKS2T|112=Prasad|10=075|
20170206-08:52:28.692 : 8=FIX.4.2|9=58|35=0|34=87|52=20170206-08:52:28.394|49=KOTAKS2T|56=S2TDMA|10=030|
20170206-08:52:30.036 : 8=FIX.4.2|9=69|35=1|34=88|52=20170206-08:52:29.679|49=KOTAKS2T|56=S2TDMA|112=Prasad|10=086|
20170206-08:52:30.176 : 8=FIX.4.2|9=69|35=0|34=73|49=S2TDMA|52=20170206-08:52:30.176|56=KOTAKS2T|112=Prasad|10=063|
20170206-08:53:29.708 : 8=FIX.4.2|9=70|35=A|34=74|49=S2TDMA|52=20170206-08:53:29.708|56=KOTAKS2T|98=0|108=30|10=063|
20170206-08:53:30.630 : 8=FIX.4.2|9=70|35=A|34=89|52=20170206-08:53:30.096|49=KOTAKS2T|56=S2TDMA|98=0|108=30|10=061|
20170206-08:53:30.989 : 8=FIX.4.2|9=68|35=2|34=90|52=20170206-08:53:30.096|49=KOTAKS2T|56=S2TDMA|7=73|16=0|10=200|
20170206-08:53:30.989 : 8=FIX.4.2|9=101|35=4|34=73|43=Y|49=S2TDMA|52=20170206-08:53:30.989|56=KOTAKS2T|122=20170206-08:53:30.989|36=75|123=Y|10=149|
20170206-08:54:00.380 : 8=FIX.4.2|9=58|35=0|34=91|52=20170206-08:54:00.096|49=KOTAKS2T|56=S2TDMA|10=016|
20170206-08:54:01.395 : 8=FIX.4.2|9=58|35=0|34=75|49=S2TDMA|52=20170206-08:54:01.395|56=KOTAKS2T|10=021|
20170206-08:54:01.692 : 8=FIX.4.2|9=69|35=1|34=92|52=20170206-08:54:01.321|49=KOTAKS2T|56=S2TDMA|112=Prasad|10=057|
20170206-08:54:01.692 : 8=FIX.4.2|9=69|35=0|34=76|49=S2TDMA|52=20170206-08:54:01.692|56=KOTAKS2T|112=Prasad|10=069|
20170206-08:54:31.677 : 8=FIX.4.2|9=58|35=0|34=93|52=20170206-08:54:31.321|49=KOTAKS2T|56=S2TDMA|10=013|
20170206-08:54:32.895 : 8=FIX.4.2|9=58|35=0|34=77|49=S2TDMA|52=20170206-08:54:32.895|56=KOTAKS2T|10=032|
20170206-08:54:32.958 : 8=FIX.4.2|9=69|35=1|34=94|52=20170206-08:54:32.096|49=KOTAKS2T|56=S2TDMA|112=Prasad|10=072|
20170206-08:54:32.958 : 8=FIX.4.2|9=69|35=0|34=78|49=S2TDMA|52=20170206-08:54:32.958|56=KOTAKS2T|112=Prasad|10=080|
20170206-08:55:02.352 : 8=FIX.4.2|9=58|35=0|34=95|52=20170206-08:55:02.097|49=KOTAKS2T|56=S2TDMA|10=024|
20170206-08:55:03.364 : 8=FIX.4.2|9=58|35=0|34=79|49=S2TDMA|52=20170206-08:55:03.364|56=KOTAKS2T|10=024|
20170206-08:55:03.554 : 8=FIX.4.2|9=69|35=1|34=96|52=20170206-08:55:03.298|49=KOTAKS2T|56=S2TDMA|112=Prasad|10=077|
20170206-08:55:03.554 : 8=FIX.4.2|9=69|35=0|34=80|49=S2TDMA|52=20170206-08:55:03.554|56=KOTAKS2T|112=Prasad|10=064|
20170206-08:56:01.319 : 8=FIX.4.2|9=70|35=A|34=81|49=S2TDMA|52=20170206-08:56:01.301|56=KOTAKS2T|98=0|108=30|10=043|
20170206-08:56:01.926 : 8=FIX.4.2|9=70|35=A|34=97|52=20170206-08:56:01.656|49=KOTAKS2T|56=S2TDMA|98=0|108=30|10=063|
20170206-08:56:31.320 : 8=FIX.4.2|9=58|35=0|34=82|49=S2TDMA|52=20170206-08:56:31.320|56=KOTAKS2T|10=012|
20170206-08:56:31.817 : 8=FIX.4.2|9=58|35=0|34=98|52=20170206-08:56:31.656|49=KOTAKS2T|56=S2TDMA|10=031|
20170206-08:56:32.864 : 8=FIX.4.2|9=157|35=D|34=83|49=S2TDMA|52=20170206-08:56:32.864|56=KOTAKS2T|1=D2|11=44|21=1|38=1|40=2|44=8755|54=1|55=NIFTY|60=20170206-08:56:32.849|100=NS|167=FUT|200=201702|10=110|
20170206-08:56:33.239 : 8=FIX.4.2|9=244|35=8|34=99|52=20170206-08:56:33.096|49=KOTAKS2T|56=S2TDMA|39=A|20=0|150=A|11=44|1=D2|21=1|54=1|55=NIFTY|59=0|167=FUT|200=201702|37=170206000029209|40=2|38=1|44=8755.00|14=0|151=1|32=0|31=0.00|6=0.0000|60=20170206-08:56:33.096|17=17020600000003|10=190|
20170206-08:56:33.364 : 8=FIX.4.2|9=314|35=8|34=100|52=20170206-08:56:33.236|49=KOTAKS2T|56=S2TDMA|39=8|20=0|150=8|11=44|1=D2|21=1|54=1|55=NIFTY|59=0|167=FUT|200=201702|37=170206000029209|58=RMS:Rule: Clientwise position limit, OI Limit Not Found for NIFTY|40=2|38=1|44=8755.00|14=0|151=0|32=0|31=0.00|6=0.0000|60=20170206-08:56:33.236|17=17020600000004|10=246|
20170206-08:57:03.239 : 8=FIX.4.2|9=70|35=1|34=101|52=20170206-08:57:03.096|49=KOTAKS2T|56=S2TDMA|112=Prasad|10=102|
20170206-08:57:03.239 : 8=FIX.4.2|9=69|35=0|34=84|49=S2TDMA|52=20170206-08:57:03.239|56=KOTAKS2T|112=Prasad|10=070|
20170206-08:57:33.426 : 8=FIX.4.2|9=59|35=0|34=102|52=20170206-08:57:33.097|49=KOTAKS2T|56=S2TDMA|10=068|
20170206-08:57:33.426 : 8=FIX.4.2|9=58|35=0|34=85|49=S2TDMA|52=20170206-08:57:33.426|56=KOTAKS2T|10=025|
20170206-08:57:33.618 : 8=FIX.4.2|9=70|35=1|34=103|52=20170206-08:57:33.414|49=KOTAKS2T|56=S2TDMA|112=Prasad|10=101|
20170206-08:57:33.630 : 8=FIX.4.2|9=69|35=0|34=86|49=S2TDMA|52=20170206-08:57:33.618|56=KOTAKS2T|112=Prasad|10=076|
20170206-08:58:03.661 : 8=FIX.4.2|9=59|35=0|34=104|52=20170206-08:58:03.415|49=KOTAKS2T|56=S2TDMA|10=062|
20170206-08:58:03.661 : 8=FIX.4.2|9=58|35=0|34=87|49=S2TDMA|52=20170206-08:58:03.661|56=KOTAKS2T|10=026|
20170206-08:58:03.865 : 8=FIX.4.2|9=70|35=1|34=105|52=20170206-08:58:03.725|49=KOTAKS2T|56=S2TDMA|112=Prasad|10=106|
20170206-08:58:03.865 : 8=FIX.4.2|9=69|35=0|34=88|49=S2TDMA|52=20170206-08:58:03.865|56=KOTAKS2T|112=Prasad|10=080|
20170206-08:58:33.880 : 8=FIX.4.2|9=59|35=0|34=106|52=20170206-08:58:33.725|49=KOTAKS2T|56=S2TDMA|10=071|
20170206-08:58:33.880 : 8=FIX.4.2|9=58|35=0|34=89|49=S2TDMA|52=20170206-08:58:33.880|56=KOTAKS2T|10=034|
20170206-08:58:34.099 : 8=FIX.4.2|9=70|35=1|34=107|52=20170206-08:58:33.963|49=KOTAKS2T|56=S2TDMA|112=Prasad|10=115|
20170206-08:58:34.099 : 8=FIX.4.2|9=69|35=0|34=90|49=S2TDMA|52=20170206-08:58:34.099|56=KOTAKS2T|112=Prasad|10=076|
20170206-08:59:04.161 : 8=FIX.4.2|9=59|35=0|34=108|52=20170206-08:59:03.964|49=KOTAKS2T|56=S2TDMA|10=076|
20170206-08:59:04.317 : 8=FIX.4.2|9=58|35=0|34=91|49=S2TDMA|52=20170206-08:59:04.255|56=KOTAKS2T|10=022|
20170206-08:59:04.317 : 8=FIX.4.2|9=70|35=1|34=109|52=20170206-08:59:04.188|49=KOTAKS2T|56=S2TDMA|112=Prasad|10=115|
20170206-08:59:04.333 : 8=FIX.4.2|9=69|35=0|34=92|49=S2TDMA|52=20170206-08:59:04.317|56=KOTAKS2T|112=Prasad|10=069|
20170206-08:59:34.317 : 8=FIX.4.2|9=59|35=0|34=110|52=20170206-08:59:34.188|49=KOTAKS2T|56=S2TDMA|10=071|
20170206-08:59:34.755 : 8=FIX.4.2|9=70|35=1|34=111|52=20170206-08:59:34.615|49=KOTAKS2T|56=S2TDMA|112=Prasad|10=106|
20170206-08:59:34.755 : 8=FIX.4.2|9=69|35=0|34=93|49=S2TDMA|52=20170206-08:59:34.755|56=KOTAKS2T|112=Prasad|10=079|
20170206-09:00:04.755 : 8=FIX.4.2|9=59|35=0|34=112|52=20170206-09:00:04.615|49=KOTAKS2T|56=S2TDMA|10=052|
20170206-09:00:04.973 : 8=FIX.4.2|9=70|35=1|34=113|52=20170206-09:00:04.831|49=KOTAKS2T|56=S2TDMA|112=Prasad|10=092|
20170206-09:00:04.973 : 8=FIX.4.2|9=69|35=0|34=94|49=S2TDMA|52=20170206-09:00:04.973|56=KOTAKS2T|112=Prasad|10=066|
20170206-09:00:35.005 : 8=FIX.4.2|9=59|35=0|34=114|52=20170206-09:00:34.832|49=KOTAKS2T|56=S2TDMA|10=058|
20170206-09:00:35.005 : 8=FIX.4.2|9=58|35=0|34=95|49=S2TDMA|52=20170206-09:00:35.005|56=KOTAKS2T|10=010|
20170206-09:01:05.006 : 8=FIX.4.2|9=59|35=0|34=115|52=20170206-09:01:04.833|49=KOTAKS2T|56=S2TDMA|10=058|
20170206-09:01:05.006 : 8=FIX.4.2|9=58|35=0|34=96|49=S2TDMA|52=20170206-09:01:05.006|56=KOTAKS2T|10=010|
20170206-09:01:35.016 : 8=FIX.4.2|9=59|35=0|34=116|52=20170206-09:01:34.834|49=KOTAKS2T|56=S2TDMA|10=063|
20170206-09:01:35.019 : 8=FIX.4.2|9=58|35=0|34=97|49=S2TDMA|52=20170206-09:01:35.018|56=KOTAKS2T|10=017|
20170206-09:01:35.224 : 8=FIX.4.2|9=70|35=1|34=117|52=20170206-09:01:35.055|49=KOTAKS2T|56=S2TDMA|112=Prasad|10=099|
20170206-09:01:35.225 : 8=FIX.4.2|9=69|35=0|34=98|49=S2TDMA|52=20170206-09:01:35.224|56=KOTAKS2T|112=Prasad|10=064|
20170206-09:02:05.294 : 8=FIX.4.2|9=59|35=0|34=118|52=20170206-09:02:05.056|49=KOTAKS2T|56=S2TDMA|10=060|
20170206-09:02:06.768 : 8=FIX.4.2|9=58|35=0|34=99|49=S2TDMA|52=20170206-09:02:06.495|56=KOTAKS2T|10=027|
20170206-09:02:08.052 : 8=FIX.4.2|9=70|35=1|34=119|52=20170206-09:02:05.279|49=KOTAKS2T|56=S2TDMA|112=Prasad|10=107|
20170206-09:02:08.514 : 8=FIX.4.2|9=70|35=0|34=100|49=S2TDMA|52=20170206-09:02:08.321|56=KOTAKS2T|112=Prasad|10=087|
20170206-09:03:08.771 : 8=FIX.4.2|9=71|35=A|34=101|49=S2TDMA|52=20170206-09:03:08.343|56=KOTAKS2T|98=0|108=30|10=091|
20170206-09:03:09.263 : 8=FIX.4.2|9=71|35=A|34=120|52=20170206-09:03:08.850|49=KOTAKS2T|56=S2TDMA|98=0|108=30|10=095|
20170206-09:03:10.599 : 8=FIX.4.2|9=70|35=2|34=102|49=S2TDMA|52=20170206-09:03:10.075|56=KOTAKS2T|7=119|16=0|10=019|
20170206-09:03:12.087 : 8=FIX.4.2|9=69|35=2|34=121|52=20170206-09:03:08.850|49=KOTAKS2T|56=S2TDMA|7=99|16=0|10=251|
20170206-09:03:12.729 : 8=FIX.4.2|9=102|35=4|34=99|43=Y|49=S2TDMA|52=20170206-09:03:12.478|56=KOTAKS2T|122=20170206-09:03:12.477|36=103|123=Y|10=175|
20170206-09:03:12.729 : 8=FIX.4.2|9=103|35=4|34=119|52=20170206-09:03:11.023|49=KOTAKS2T|56=S2TDMA|123=Y|43=Y|36=122|122=20170206-09:03:11.023|10=189|
20170206-09:03:13.220 : 8=FIX.4.2|9=118|35=3|34=103|49=S2TDMA|52=20170206-09:03:12.915|56=KOTAKS2T|45=119|58=Tag specified out of required order|371=43|372=4|10=181|
20170206-09:03:13.220 : 8=FIX.4.2|9=69|35=2|34=122|52=20170206-09:03:11.023|49=KOTAKS2T|56=S2TDMA|7=99|16=0|10=238|
20170206-09:03:13.873 : 8=FIX.4.2|9=102|35=4|34=99|43=Y|49=S2TDMA|52=20170206-09:03:13.551|56=KOTAKS2T|122=20170206-09:03:13.551|36=104|123=Y|10=163|
20170206-09:03:41.282 : 8=FIX.4.2|9=59|35=0|34=123|52=20170206-09:03:41.023|49=KOTAKS2T|56=S2TDMA|10=051|
20170206-09:03:45.809 : 8=FIX.4.2|9=59|35=0|34=104|49=S2TDMA|52=20170206-09:03:45.374|56=KOTAKS2T|10=063|
20170206-09:03:45.810 : 8=FIX.4.2|9=70|35=1|34=124|52=20170206-09:03:43.920|49=KOTAKS2T|56=S2TDMA|112=Prasad|10=099|
20170206-09:03:50.447 : 8=FIX.4.2|9=68|35=1|34=105|49=S2TDMA|52=20170206-09:03:50.149|56=KOTAKS2T|112=TEST|10=079|
20170206-09:03:51.414 : 8=FIX.4.2|9=68|35=0|34=125|52=20170206-09:03:50.722|49=KOTAKS2T|56=S2TDMA|112=TEST|10=077|
20170206-09:04:21.064 : 8=FIX.4.2|9=59|35=0|34=126|52=20170206-09:04:20.722|49=KOTAKS2T|56=S2TDMA|10=058|
20170206-09:04:21.667 : 8=FIX.4.2|9=70|35=1|34=127|52=20170206-09:04:20.722|49=KOTAKS2T|56=S2TDMA|112=Prasad|10=098|
20170206-09:05:08.415 : 8=FIX.4.2|9=71|35=A|34=106|49=S2TDMA|52=20170206-09:05:08.175|56=KOTAKS2T|98=0|108=30|10=101|
20170206-09:05:08.923 : 8=FIX.4.2|9=71|35=A|34=128|52=20170206-09:05:08.534|49=KOTAKS2T|56=S2TDMA|98=0|108=30|10=104|
20170206-09:05:09.574 : 8=FIX.4.2|9=70|35=2|34=107|49=S2TDMA|52=20170206-09:05:09.570|56=KOTAKS2T|7=119|16=0|10=034|
20170206-09:05:10.853 : 8=FIX.4.2|9=103|35=4|34=119|52=20170206-09:05:09.701|49=KOTAKS2T|56=S2TDMA|123=Y|43=Y|36=129|122=20170206-09:05:09.701|10=220|
20170206-09:05:10.868 : 8=FIX.4.2|9=118|35=3|34=108|49=S2TDMA|52=20170206-09:05:10.855|56=KOTAKS2T|45=119|58=Tag specified out of required order|371=43|372=4|10=189|
20170206-09:05:39.995 : 8=FIX.4.2|9=59|35=0|34=129|52=20170206-09:05:39.701|49=KOTAKS2T|56=S2TDMA|10=069|
20170206-09:05:41.870 : 8=FIX.4.2|9=59|35=0|34=109|49=S2TDMA|52=20170206-09:05:41.547|56=KOTAKS2T|10=068|
20170206-09:05:41.870 : 8=FIX.4.2|9=70|35=1|34=130|52=20170206-09:05:41.148|49=KOTAKS2T|56=S2TDMA|112=Prasad|10=098|
20170206-09:05:46.349 : 8=FIX.4.2|9=68|35=1|34=110|49=S2TDMA|52=20170206-09:05:45.969|56=KOTAKS2T|112=TEST|10=091|
20170206-09:05:47.188 : 8=FIX.4.2|9=68|35=0|34=131|52=20170206-09:05:46.522|49=KOTAKS2T|56=S2TDMA|112=TEST|10=079|
20170206-09:06:16.848 : 8=FIX.4.2|9=59|35=0|34=132|52=20170206-09:06:16.523|49=KOTAKS2T|56=S2TDMA|10=061|
20170206-09:06:16.981 : 8=FIX.4.2|9=70|35=1|34=133|52=20170206-09:06:16.523|49=KOTAKS2T|56=S2TDMA|112=Prasad|10=101|
20170206-09:07:09.139 : 8=FIX.4.2|9=71|35=A|34=111|49=S2TDMA|52=20170206-09:07:09.065|56=KOTAKS2T|98=0|108=30|10=098|
20170206-09:07:09.914 : 8=FIX.4.2|9=71|35=A|34=134|52=20170206-09:07:09.506|49=KOTAKS2T|56=S2TDMA|98=0|108=30|10=103|
20170206-09:07:10.882 : 8=FIX.4.2|9=70|35=2|34=112|49=S2TDMA|52=20170206-09:07:10.864|56=KOTAKS2T|7=119|16=0|10=030|
20170206-09:07:12.778 : 8=FIX.4.2|9=103|35=4|34=119|52=20170206-09:07:11.159|49=KOTAKS2T|56=S2TDMA|123=Y|43=Y|36=135|122=20170206-09:07:11.159|10=221|
20170206-09:07:13.106 : 8=FIX.4.2|9=118|35=3|34=113|49=S2TDMA|52=20170206-09:07:12.780|56=KOTAKS2T|45=119|58=Tag specified out of required order|371=43|372=4|10=186|
20170206-09:07:41.408 : 8=FIX.4.2|9=59|35=0|34=135|52=20170206-09:07:41.160|49=KOTAKS2T|56=S2TDMA|10=060|
20170206-09:07:43.303 : 8=FIX.4.2|9=59|35=0|34=114|49=S2TDMA|52=20170206-09:07:43.105|56=KOTAKS2T|10=058|
20170206-09:07:44.645 : 8=FIX.4.2|9=70|35=1|34=136|52=20170206-09:07:43.444|49=KOTAKS2T|56=S2TDMA|112=Prasad|10=107|
20170206-09:07:47.428 : 8=FIX.4.2|9=68|35=1|34=115|49=S2TDMA|52=20170206-09:07:47.014|56=KOTAKS2T|112=TEST|10=081|
20170206-09:07:47.954 : 8=FIX.4.2|9=68|35=0|34=137|52=20170206-09:07:47.533|49=KOTAKS2T|56=S2TDMA|112=TEST|10=090|
20170206-09:08:17.771 : 8=FIX.4.2|9=59|35=0|34=138|52=20170206-09:08:17.533|49=KOTAKS2T|56=S2TDMA|10=071|
20170206-09:08:17.792 : 8=FIX.4.2|9=70|35=1|34=139|52=20170206-09:08:17.534|49=KOTAKS2T|56=S2TDMA|112=Prasad|10=112|
20170206-09:09:11.509 : 8=FIX.4.2|9=71|35=A|34=116|49=S2TDMA|52=20170206-09:09:11.380|56=KOTAKS2T|98=0|108=30|10=098|
20170206-09:09:12.330 : 8=FIX.4.2|9=71|35=A|34=140|52=20170206-09:09:11.918|49=KOTAKS2T|56=S2TDMA|98=0|108=30|10=102|
20170206-09:09:13.144 : 8=FIX.4.2|9=70|35=2|34=117|49=S2TDMA|52=20170206-09:09:12.818|56=KOTAKS2T|7=119|16=0|10=038|
20170206-09:09:15.025 : 8=FIX.4.2|9=103|35=4|34=119|52=20170206-09:09:13.657|49=KOTAKS2T|56=S2TDMA|123=Y|43=Y|36=141|122=20170206-09:09:13.657|10=232|
20170206-09:09:16.760 : 8=FIX.4.2|9=118|35=3|34=118|49=S2TDMA|52=20170206-09:09:16.454|56=KOTAKS2T|45=119|58=Tag specified out of required order|371=43|372=4|10=195|
20170206-09:09:43.852 : 8=FIX.4.2|9=59|35=0|34=141|52=20170206-09:09:43.658|49=KOTAKS2T|56=S2TDMA|10=073|
20170206-09:09:45.865 : 8=FIX.4.2|9=157|35=D|34=119|49=S2TDMA|52=20170206-09:09:45.864|56=KOTAKS2T|1=D2|11=45|21=1|38=1|40=2|44=144.2|54=1|55=DLF|60=20170206-09:09:45.863|100=NS|167=FUT|200=201702|10=013|
20170206-09:09:46.923 : 8=FIX.4.2|9=242|35=8|34=142|52=20170206-09:09:46.205|49=KOTAKS2T|56=S2TDMA|39=A|20=0|150=A|11=45|1=D2|21=1|54=1|55=DLF|59=0|167=FUT|200=201702|37=170206000029897|40=2|38=1|44=144.20|14=0|151=1|32=0|31=0.00|6=0.0000|60=20170206-09:09:46.205|17=17020600000005|10=245|
20170206-09:09:46.924 : 8=FIX.4.2|9=309|35=8|34=143|52=20170206-09:09:46.208|49=KOTAKS2T|56=S2TDMA|39=8|20=0|150=8|11=45|1=D2|21=1|54=1|55=DLF|59=0|167=FUT|200=201702|37=170206000029897|58=RMS:Rule: Clientwise position limit, OI Limit Not Found for DLF|40=2|38=1|44=144.20|14=0|151=0|32=0|31=0.00|6=0.0000|60=20170206-09:09:46.208|17=17020600000006|10=111|
20170206-09:09:49.209 : 8=FIX.4.2|9=68|35=1|34=120|49=S2TDMA|52=20170206-09:09:49.207|56=KOTAKS2T|112=TEST|10=085|
20170206-09:09:49.627 : 8=FIX.4.2|9=68|35=0|34=144|52=20170206-09:09:49.407|49=KOTAKS2T|56=S2TDMA|112=TEST|10=092|
20170206-09:10:19.639 : 8=FIX.4.2|9=59|35=0|34=145|52=20170206-09:10:19.411|49=KOTAKS2T|56=S2TDMA|10=059|
20170206-09:10:19.734 : 8=FIX.4.2|9=70|35=1|34=146|52=20170206-09:10:19.411|49=KOTAKS2T|56=S2TDMA|112=Prasad|10=099|
20170206-09:11:11.620 : 8=FIX.4.2|9=71|35=A|34=121|49=S2TDMA|52=20170206-09:11:11.618|56=KOTAKS2T|98=0|108=30|10=091|
20170206-09:11:12.399 : 8=FIX.4.2|9=71|35=A|34=147|52=20170206-09:11:11.977|49=KOTAKS2T|56=S2TDMA|98=0|108=30|10=107|
20170206-09:11:12.403 : 8=FIX.4.2|9=70|35=2|34=122|49=S2TDMA|52=20170206-09:11:12.402|56=KOTAKS2T|7=119|16=0|10=016|
20170206-09:11:13.530 : 8=FIX.4.2|9=103|35=4|34=119|52=20170206-09:11:12.783|49=KOTAKS2T|56=S2TDMA|123=Y|43=Y|36=142|122=20170206-09:11:12.783|10=217|
20170206-09:11:15.018 : 8=FIX.4.2|9=118|35=3|34=123|49=S2TDMA|52=20170206-09:11:15.017|56=KOTAKS2T|45=119|58=Tag specified out of required order|371=43|372=4|10=178|
20170206-09:11:15.018 : 8=FIX.4.2|9=273|35=8|34=142|49=KOTAKS2T|56=S2TDMA|39=A|20=0|150=A|11=45|1=D2|21=1|54=1|55=DLF|59=0|167=FUT|200=201702|37=170206000029897|40=2|38=1|44=144.20|14=0|151=1|32=0|31=0.00|6=0.0000|60=20170206-09:09:46.205|17=17020600000005|52=20170206-09:11:12.783|122=20170206-09:09:46.205|43=Y|10=251|
20170206-09:11:15.021 : 8=FIX.4.2|9=118|35=3|34=124|49=S2TDMA|52=20170206-09:11:15.020|56=KOTAKS2T|45=142|58=Tag specified out of required order|371=52|372=8|10=173|
20170206-09:11:15.021 : 8=FIX.4.2|9=340|35=8|34=143|49=KOTAKS2T|56=S2TDMA|39=8|20=0|150=8|11=45|1=D2|21=1|54=1|55=DLF|59=0|167=FUT|200=201702|37=170206000029897|58=RMS:Rule: Clientwise position limit, OI Limit Not Found for DLF|40=2|38=1|44=144.20|14=0|151=0|32=0|31=0.00|6=0.0000|60=20170206-09:09:46.208|17=17020600000006|52=20170206-09:11:12.783|122=20170206-09:09:46.208|43=Y|10=108|
20170206-09:11:15.021 : 8=FIX.4.2|9=118|35=3|34=125|49=S2TDMA|52=20170206-09:11:15.021|56=KOTAKS2T|45=143|58=Tag specified out of required order|371=52|372=8|10=176|
20170206-09:11:15.021 : 8=FIX.4.2|9=103|35=4|34=144|52=20170206-09:11:12.783|49=KOTAKS2T|56=S2TDMA|123=Y|43=Y|36=148|122=20170206-09:11:12.783|10=221|
20170206-09:11:15.021 : 8=FIX.4.2|9=118|35=3|34=126|49=S2TDMA|52=20170206-09:11:15.021|56=KOTAKS2T|45=144|58=Tag specified out of required order|371=43|372=4|10=174|
20170206-09:11:42.955 : 8=FIX.4.2|9=59|35=0|34=148|52=20170206-09:11:42.783|49=KOTAKS2T|56=S2TDMA|10=071|
20170206-09:11:45.278 : 8=FIX.4.2|9=59|35=0|34=127|49=S2TDMA|52=20170206-09:11:45.275|56=KOTAKS2T|10=067|
20170206-09:11:49.283 : 8=FIX.4.2|9=68|35=1|34=128|49=S2TDMA|52=20170206-09:11:49.282|56=KOTAKS2T|112=TEST|10=089|
20170206-09:11:52.207 : 8=FIX.4.2|9=68|35=0|34=149|52=20170206-09:11:49.584|49=KOTAKS2T|56=S2TDMA|112=TEST|10=096|
20170206-09:11:56.205 : 8=FIX.4.2|9=157|35=D|34=129|49=S2TDMA|52=20170206-09:11:56.204|56=KOTAKS2T|1=D2|11=46|21=1|38=1|40=2|44=144.2|54=1|55=DLF|60=20170206-09:11:56.203|100=NS|167=FUT|200=201702|10=237|
20170206-09:11:56.886 : 8=FIX.4.2|9=242|35=8|34=150|52=20170206-09:11:56.618|49=KOTAKS2T|56=S2TDMA|39=A|20=0|150=A|11=46|1=D2|21=1|54=1|55=DLF|59=0|167=FUT|200=201702|37=170206000029898|40=2|38=1|44=144.20|14=0|151=1|32=0|31=0.00|6=0.0000|60=20170206-09:11:56.618|17=17020600000007|10=252|
20170206-09:11:57.095 : 8=FIX.4.2|9=309|35=8|34=151|52=20170206-09:11:56.620|49=KOTAKS2T|56=S2TDMA|39=8|20=0|150=8|11=46|1=D2|21=1|54=1|55=DLF|59=0|167=FUT|200=201702|37=170206000029898|58=RMS:Rule: Clientwise position limit, OI Limit Not Found for DLF|40=2|38=1|44=144.20|14=0|151=0|32=0|31=0.00|6=0.0000|60=20170206-09:11:56.620|17=17020600000008|10=098|
20170206-09:13:12.927 : 8=FIX.4.2|9=71|35=A|34=130|49=S2TDMA|52=20170206-09:13:12.923|56=KOTAKS2T|98=0|108=30|10=093|
20170206-09:13:14.509 : 8=FIX.4.2|9=71|35=A|34=152|52=20170206-09:13:13.504|49=KOTAKS2T|56=S2TDMA|98=0|108=30|10=093|
20170206-09:13:14.721 : 8=FIX.4.2|9=70|35=2|34=131|49=S2TDMA|52=20170206-09:13:14.510|56=KOTAKS2T|7=119|16=0|10=020|
20170206-09:13:15.472 : 8=FIX.4.2|9=103|35=4|34=119|52=20170206-09:13:15.016|49=KOTAKS2T|56=S2TDMA|123=Y|43=Y|36=142|122=20170206-09:13:15.016|10=205|
20170206-09:13:15.631 : 8=FIX.4.2|9=118|35=3|34=132|49=S2TDMA|52=20170206-09:13:15.630|56=KOTAKS2T|45=119|58=Tag specified out of required order|371=43|372=4|10=181|
20170206-09:13:15.632 : 8=FIX.4.2|9=273|35=8|34=142|49=KOTAKS2T|56=S2TDMA|39=A|20=0|150=A|11=45|1=D2|21=1|54=1|55=DLF|59=0|167=FUT|200=201702|37=170206000029897|40=2|38=1|44=144.20|14=0|151=1|32=0|31=0.00|6=0.0000|60=20170206-09:09:46.205|17=17020600000005|52=20170206-09:13:15.016|122=20170206-09:09:46.205|43=Y|10=245|
20170206-09:13:15.725 : 8=FIX.4.2|9=118|35=3|34=133|49=S2TDMA|52=20170206-09:13:15.724|56=KOTAKS2T|45=142|58=Tag specified out of required order|371=52|372=8|10=186|
20170206-09:13:15.726 : 8=FIX.4.2|9=340|35=8|34=143|49=KOTAKS2T|56=S2TDMA|39=8|20=0|150=8|11=45|1=D2|21=1|54=1|55=DLF|59=0|167=FUT|200=201702|37=170206000029897|58=RMS:Rule: Clientwise position limit, OI Limit Not Found for DLF|40=2|38=1|44=144.20|14=0|151=0|32=0|31=0.00|6=0.0000|60=20170206-09:09:46.208|17=17020600000006|52=20170206-09:13:15.016|122=20170206-09:09:46.208|43=Y|10=102|
20170206-09:13:15.845 : 8=FIX.4.2|9=118|35=3|34=134|49=S2TDMA|52=20170206-09:13:15.844|56=KOTAKS2T|45=143|58=Tag specified out of required order|371=52|372=8|10=191|
20170206-09:13:15.845 : 8=FIX.4.2|9=103|35=4|34=144|52=20170206-09:13:15.016|49=KOTAKS2T|56=S2TDMA|123=Y|43=Y|36=150|122=20170206-09:13:15.016|10=202|
20170206-09:13:15.882 : 8=FIX.4.2|9=118|35=3|34=135|49=S2TDMA|52=20170206-09:13:15.880|56=KOTAKS2T|45=144|58=Tag specified out of required order|371=43|372=4|10=189|
20170206-09:13:15.882 : 8=FIX.4.2|9=273|35=8|34=150|49=KOTAKS2T|56=S2TDMA|39=A|20=0|150=A|11=46|1=D2|21=1|54=1|55=DLF|59=0|167=FUT|200=201702|37=170206000029898|40=2|38=1|44=144.20|14=0|151=1|32=0|31=0.00|6=0.0000|60=20170206-09:11:56.618|17=17020600000007|52=20170206-09:13:15.016|122=20170206-09:11:56.618|43=Y|10=252|
20170206-09:13:16.195 : 8=FIX.4.2|9=118|35=3|34=136|49=S2TDMA|52=20170206-09:13:16.194|56=KOTAKS2T|45=150|58=Tag specified out of required order|371=52|372=8|10=190|
20170206-09:13:16.195 : 8=FIX.4.2|9=340|35=8|34=151|49=KOTAKS2T|56=S2TDMA|39=8|20=0|150=8|11=46|1=D2|21=1|54=1|55=DLF|59=0|167=FUT|200=201702|37=170206000029898|58=RMS:Rule: Clientwise position limit, OI Limit Not Found for DLF|40=2|38=1|44=144.20|14=0|151=0|32=0|31=0.00|6=0.0000|60=20170206-09:11:56.620|17=17020600000008|52=20170206-09:13:15.017|122=20170206-09:11:56.620|43=Y|10=090|
20170206-09:13:16.343 : 8=FIX.4.2|9=118|35=3|34=137|49=S2TDMA|52=20170206-09:13:16.342|56=KOTAKS2T|45=151|58=Tag specified out of required order|371=52|372=8|10=187|
20170206-09:13:16.343 : 8=FIX.4.2|9=103|35=4|34=152|52=20170206-09:13:15.017|49=KOTAKS2T|56=S2TDMA|123=Y|43=Y|36=153|122=20170206-09:13:15.017|10=206|
20170206-09:13:16.494 : 8=FIX.4.2|9=118|35=3|34=138|49=S2TDMA|52=20170206-09:13:16.492|56=KOTAKS2T|45=152|58=Tag specified out of required order|371=43|372=4|10=191|
20170206-09:13:45.598 : 8=FIX.4.2|9=59|35=0|34=153|52=20170206-09:13:45.017|49=KOTAKS2T|56=S2TDMA|10=062|
20170206-09:13:47.833 : 8=FIX.4.2|9=59|35=0|34=139|49=S2TDMA|52=20170206-09:13:47.427|56=KOTAKS2T|10=073|
20170206-09:13:47.833 : 8=FIX.4.2|9=70|35=1|34=154|52=20170206-09:13:47.138|49=KOTAKS2T|56=S2TDMA|112=Prasad|10=108|
20170206-09:13:49.520 : 8=FIX.4.2|9=155|35=D|34=140|49=S2TDMA|52=20170206-09:13:49.520|56=KOTAKS2T|1=D2|11=47|21=1|38=1|40=2|44=145|54=1|55=DLF|60=20170206-09:13:49.520|100=NS|167=FUT|200=201702|10=145|
20170206-09:13:50.585 : 8=FIX.4.2|9=242|35=8|34=155|52=20170206-09:13:50.133|49=KOTAKS2T|56=S2TDMA|39=A|20=0|150=A|11=47|1=D2|21=1|54=1|55=DLF|59=0|167=FUT|200=201702|37=170206000029899|40=2|38=1|44=145.00|14=0|151=1|32=0|31=0.00|6=0.0000|60=20170206-09:13:50.133|17=17020600000009|10=236|
20170206-09:13:50.585 : 8=FIX.4.2|9=309|35=8|34=156|52=20170206-09:13:50.136|49=KOTAKS2T|56=S2TDMA|39=8|20=0|150=8|11=47|1=D2|21=1|54=1|55=DLF|59=0|167=FUT|200=201702|37=170206000029899|58=RMS:Rule: Clientwise position limit, OI Limit Not Found for DLF|40=2|38=1|44=145.00|14=0|151=0|32=0|31=0.00|6=0.0000|60=20170206-09:13:50.135|17=17020600000010|10=092|
20170206-09:13:51.602 : 8=FIX.4.2|9=68|35=1|34=141|49=S2TDMA|52=20170206-09:13:51.602|56=KOTAKS2T|112=TEST|10=075|
20170206-09:13:52.208 : 8=FIX.4.2|9=68|35=0|34=157|52=20170206-09:13:51.879|49=KOTAKS2T|56=S2TDMA|112=TEST|10=097|
20170206-09:14:22.161 : 8=FIX.4.2|9=59|35=0|34=158|52=20170206-09:14:21.880|49=KOTAKS2T|56=S2TDMA|10=070|
20170206-09:14:22.583 : 8=FIX.4.2|9=70|35=1|34=159|52=20170206-09:14:21.880|49=KOTAKS2T|56=S2TDMA|112=Prasad|10=110|
20170206-09:15:13.709 : 8=FIX.4.2|9=71|35=A|34=142|49=S2TDMA|52=20170206-09:15:13.709|56=KOTAKS2T|98=0|108=30|10=101|
20170206-09:15:14.224 : 8=FIX.4.2|9=71|35=A|34=160|52=20170206-09:15:14.070|49=KOTAKS2T|56=S2TDMA|98=0|108=30|10=093|
20170206-09:15:14.224 : 8=FIX.4.2|9=70|35=2|34=143|49=S2TDMA|52=20170206-09:15:14.224|56=KOTAKS2T|7=119|16=0|10=027|
20170206-09:15:15.114 : 8=FIX.4.2|9=103|35=4|34=119|52=20170206-09:15:14.322|49=KOTAKS2T|56=S2TDMA|123=Y|43=Y|36=142|122=20170206-09:15:14.322|10=207|
20170206-09:15:15.223 : 8=FIX.4.2|9=118|35=3|34=144|49=S2TDMA|52=20170206-09:15:15.223|56=KOTAKS2T|45=119|58=Tag specified out of required order|371=43|372=4|10=184|
20170206-09:15:15.223 : 8=FIX.4.2|9=273|35=8|34=142|49=KOTAKS2T|56=S2TDMA|39=A|20=0|150=A|11=45|1=D2|21=1|54=1|55=DLF|59=0|167=FUT|200=201702|37=170206000029897|40=2|38=1|44=144.20|14=0|151=1|32=0|31=0.00|6=0.0000|60=20170206-09:09:46.205|17=17020600000005|52=20170206-09:15:14.323|122=20170206-09:09:46.205|43=Y|10=247|
20170206-09:15:15.317 : 8=FIX.4.2|9=118|35=3|34=145|49=S2TDMA|52=20170206-09:15:15.317|56=KOTAKS2T|45=142|58=Tag specified out of required order|371=52|372=8|10=189|
20170206-09:15:15.317 : 8=FIX.4.2|9=340|35=8|34=143|49=KOTAKS2T|56=S2TDMA|39=8|20=0|150=8|11=45|1=D2|21=1|54=1|55=DLF|59=0|167=FUT|200=201702|37=170206000029897|58=RMS:Rule: Clientwise position limit, OI Limit Not Found for DLF|40=2|38=1|44=144.20|14=0|151=0|32=0|31=0.00|6=0.0000|60=20170206-09:09:46.208|17=17020600000006|52=20170206-09:15:14.323|122=20170206-09:09:46.208|43=Y|10=104|
20170206-09:15:15.536 : 8=FIX.4.2|9=118|35=3|34=146|49=S2TDMA|52=20170206-09:15:15.536|56=KOTAKS2T|45=143|58=Tag specified out of required order|371=52|372=8|10=194|
20170206-09:15:15.536 : 8=FIX.4.2|9=103|35=4|34=144|52=20170206-09:15:14.323|49=KOTAKS2T|56=S2TDMA|123=Y|43=Y|36=150|122=20170206-09:15:14.323|10=206|
20170206-09:15:15.630 : 8=FIX.4.2|9=118|35=3|34=147|49=S2TDMA|52=20170206-09:15:15.630|56=KOTAKS2T|45=144|58=Tag specified out of required order|371=43|372=4|10=187|
20170206-09:15:15.630 : 8=FIX.4.2|9=273|35=8|34=150|49=KOTAKS2T|56=S2TDMA|39=A|20=0|150=A|11=46|1=D2|21=1|54=1|55=DLF|59=0|167=FUT|200=201702|37=170206000029898|40=2|38=1|44=144.20|14=0|151=1|32=0|31=0.00|6=0.0000|60=20170206-09:11:56.618|17=17020600000007|52=20170206-09:15:14.323|122=20170206-09:11:56.618|43=Y|10=254|
20170206-09:15:15.786 : 8=FIX.4.2|9=118|35=3|34=148|49=S2TDMA|52=20170206-09:15:15.770|56=KOTAKS2T|45=150|58=Tag specified out of required order|371=52|372=8|10=194|
20170206-09:15:15.786 : 8=FIX.4.2|9=340|35=8|34=151|49=KOTAKS2T|56=S2TDMA|39=8|20=0|150=8|11=46|1=D2|21=1|54=1|55=DLF|59=0|167=FUT|200=201702|37=170206000029898|58=RMS:Rule: Clientwise position limit, OI Limit Not Found for DLF|40=2|38=1|44=144.20|14=0|151=0|32=0|31=0.00|6=0.0000|60=20170206-09:11:56.620|17=17020600000008|52=20170206-09:15:14.323|122=20170206-09:11:56.620|43=Y|10=091|
20170206-09:15:16.224 : 8=FIX.4.2|9=118|35=3|34=149|49=S2TDMA|52=20170206-09:15:16.224|56=KOTAKS2T|45=151|58=Tag specified out of required order|371=52|372=8|10=191|
20170206-09:15:16.224 : 8=FIX.4.2|9=103|35=4|34=152|52=20170206-09:15:14.323|49=KOTAKS2T|56=S2TDMA|123=Y|43=Y|36=155|122=20170206-09:15:14.323|10=210|
20170206-09:15:16.426 : 8=FIX.4.2|9=118|35=3|34=150|49=S2TDMA|52=20170206-09:15:16.426|56=KOTAKS2T|45=152|58=Tag specified out of required order|371=43|372=4|10=184|
20170206-09:15:16.426 : 8=FIX.4.2|9=273|35=8|34=155|49=KOTAKS2T|56=S2TDMA|39=A|20=0|150=A|11=47|1=D2|21=1|54=1|55=DLF|59=0|167=FUT|200=201702|37=170206000029899|40=2|38=1|44=145.00|14=0|151=1|32=0|31=0.00|6=0.0000|60=20170206-09:13:50.133|17=17020600000009|52=20170206-09:15:14.323|122=20170206-09:13:50.133|43=Y|10=238|
20170206-09:15:16.520 : 8=FIX.4.2|9=118|35=3|34=151|49=S2TDMA|52=20170206-09:15:16.520|56=KOTAKS2T|45=155|58=Tag specified out of required order|371=52|372=8|10=187|
20170206-09:15:16.520 : 8=FIX.4.2|9=340|35=8|34=156|49=KOTAKS2T|56=S2TDMA|39=8|20=0|150=8|11=47|1=D2|21=1|54=1|55=DLF|59=0|167=FUT|200=201702|37=170206000029899|58=RMS:Rule: Clientwise position limit, OI Limit Not Found for DLF|40=2|38=1|44=145.00|14=0|151=0|32=0|31=0.00|6=0.0000|60=20170206-09:13:50.135|17=17020600000010|52=20170206-09:15:14.323|122=20170206-09:13:50.136|43=Y|10=085|
20170206-09:15:16.692 : 8=FIX.4.2|9=118|35=3|34=152|49=S2TDMA|52=20170206-09:15:16.692|56=KOTAKS2T|45=156|58=Tag specified out of required order|371=52|372=8|10=199|
20170206-09:15:16.692 : 8=FIX.4.2|9=103|35=4|34=157|52=20170206-09:15:14.323|49=KOTAKS2T|56=S2TDMA|123=Y|43=Y|36=161|122=20170206-09:15:14.323|10=212|
20170206-09:15:16.692 : 8=FIX.4.2|9=118|35=3|34=153|49=S2TDMA|52=20170206-09:15:16.692|56=KOTAKS2T|45=157|58=Tag specified out of required order|371=43|372=4|10=197|
20170206-09:15:44.724 : 8=FIX.4.2|9=59|35=0|34=161|52=20170206-09:15:44.323|49=KOTAKS2T|56=S2TDMA|10=062|
20170206-09:15:46.942 : 8=FIX.4.2|9=59|35=0|34=154|49=S2TDMA|52=20170206-09:15:46.942|56=KOTAKS2T|10=073|
20170206-09:15:47.708 : 8=FIX.4.2|9=70|35=1|34=162|52=20170206-09:15:47.141|49=KOTAKS2T|56=S2TDMA|112=Prasad|10=103|
20170206-09:15:50.739 : 8=FIX.4.2|9=68|35=1|34=155|49=S2TDMA|52=20170206-09:15:50.739|56=KOTAKS2T|112=TEST|10=092|
20170206-09:15:51.396 : 8=FIX.4.2|9=68|35=0|34=163|52=20170206-09:15:50.830|49=KOTAKS2T|56=S2TDMA|112=TEST|10=082|
