8=FIX.4.2|9=69|35=A|34=1|49=S2TDMA|52=20170206-08:25:34.598|56=KOTAKS2T|98=0|108=30|10=015|8=FIX.4.2|9=57|35=0|34=2|49=S2TDMA|52=20170206-08:26:04.825|56=KOTAKS2T|10=218|8=FIX.4.2|9=68|35=0|34=3|49=S2TDMA|52=20170206-08:26:05.032|56=KOTAKS2T|112=Prasad|10=001|8=FIX.4.2|9=68|35=0|34=4|49=S2TDMA|52=20170206-08:26:35.386|56=KOTAKS2T|112=Prasad|10=017|8=FIX.4.2|9=68|35=0|34=5|49=S2TDMA|52=20170206-08:27:05.676|56=KOTAKS2T|112=Prasad|10=018|8=FIX.4.2|9=57|35=0|34=6|49=S2TDMA|52=20170206-08:27:35.676|56=KOTAKS2T|10=231|8=FIX.4.2|9=68|35=0|34=7|49=S2TDMA|52=20170206-08:27:35.896|56=KOTAKS2T|112=Prasad|10=027|8=FIX.4.2|9=68|35=0|34=8|49=S2TDMA|52=20170206-08:28:06.114|56=KOTAKS2T|112=Prasad|10=010|8=FIX.4.2|9=57|35=0|34=9|49=S2TDMA|52=20170206-08:28:36.114|56=KOTAKS2T|10=223|8=FIX.4.2|9=58|35=0|34=10|49=S2TDMA|52=20170206-08:29:06.127|56=KOTAKS2T|10=010|8=FIX.4.2|9=69|35=0|34=11|49=S2TDMA|52=20170206-08:29:36.344|56=KOTAKS2T|112=Prasad|10=062|8=FIX.4.2|9=58|35=0|34=12|49=S2TDMA|52=20170206-08:30:06.348|56=KOTAKS2T|10=009|8=FIX.4.2|9=58|35=0|34=13|49=S2TDMA|52=20170206-08:30:36.359|56=KOTAKS2T|10=015|8=FIX.4.2|9=69|35=0|34=14|49=S2TDMA|52=20170206-08:30:36.575|56=KOTAKS2T|112=Prasad|10=063|8=FIX.4.2|9=58|35=0|34=15|49=S2TDMA|52=20170206-08:31:06.576|56=KOTAKS2T|10=016|8=FIX.4.2|9=58|35=0|34=16|49=S2TDMA|52=20170206-08:31:36.581|56=KOTAKS2T|10=016|8=FIX.4.2|9=69|35=0|34=17|49=S2TDMA|52=20170206-08:31:36.794|56=KOTAKS2T|112=Prasad|10=070|8=FIX.4.2|9=58|35=0|34=18|49=S2TDMA|52=20170206-08:32:06.795|56=KOTAKS2T|10=023|8=FIX.4.2|9=69|35=0|34=19|49=S2TDMA|52=20170206-08:32:07.011|56=KOTAKS2T|112=Prasad|10=053|8=FIX.4.2|9=58|35=0|34=20|49=S2TDMA|52=20170206-08:32:37.022|56=KOTAKS2T|10=003|8=FIX.4.2|9=58|35=0|34=21|49=S2TDMA|52=20170206-08:33:07.212|56=KOTAKS2T|10=003|8=FIX.4.2|9=69|35=0|34=22|49=S2TDMA|52=20170206-08:33:07.535|56=KOTAKS2T|112=Prasad|10=059|8=FIX.4.2|9=69|35=0|34=23|49=S2TDMA|52=20170206-08:33:37.772|56=KOTAKS2T|112=Prasad|10=066|8=FIX.4.2|9=69|35=0|34=24|49=S2TDMA|52=20170206-08:34:07.988|56=KOTAKS2T|112=Prasad|10=074|8=FIX.4.2|9=58|35=0|34=25|49=S2TDMA|52=20170206-08:34:37.989|56=KOTAKS2T|10=032|8=FIX.4.2|9=69|35=0|34=26|49=S2TDMA|52=20170206-08:35:08.192|56=KOTAKS2T|112=Prasad|10=065|8=FIX.4.2|9=58|35=0|34=27|49=S2TDMA|52=20170206-08:35:38.223|56=KOTAKS2T|10=017|8=FIX.4.2|9=69|35=0|34=28|49=S2TDMA|52=20170206-08:35:38.473|56=KOTAKS2T|112=Prasad|10=072|8=FIX.4.2|9=58|35=0|34=29|49=S2TDMA|52=20170206-08:36:08.489|56=KOTAKS2T|10=031|8=FIX.4.2|9=58|35=0|34=30|49=S2TDMA|52=20170206-08:36:38.505|56=KOTAKS2T|10=015|8=FIX.4.2|9=69|35=0|34=31|49=S2TDMA|52=20170206-08:36:38.708|56=KOTAKS2T|112=Prasad|10=068|8=FIX.4.2|9=58|35=0|34=32|49=S2TDMA|52=20170206-08:37:08.708|56=KOTAKS2T|10=020|8=FIX.4.2|9=69|35=0|34=33|49=S2TDMA|52=20170206-08:37:38.926|56=KOTAKS2T|112=Prasad|10=073|8=FIX.4.2|9=58|35=0|34=34|49=S2TDMA|52=20170206-08:38:08.932|56=KOTAKS2T|10=022|8=FIX.4.2|9=58|35=0|34=35|49=S2TDMA|52=20170206-08:38:39.036|56=KOTAKS2T|10=022|8=FIX.4.2|9=69|35=0|34=36|49=S2TDMA|52=20170206-08:38:39.145|56=KOTAKS2T|112=Prasad|10=071|8=FIX.4.2|9=58|35=0|34=37|49=S2TDMA|52=20170206-08:39:09.395|56=KOTAKS2T|10=030|8=FIX.4.2|9=69|35=0|34=38|49=S2TDMA|52=20170206-08:39:09.536|56=KOTAKS2T|112=Prasad|10=075|8=FIX.4.2|9=58|35=0|34=39|49=S2TDMA|52=20170206-08:39:39.583|56=KOTAKS2T|10=034|8=FIX.4.2|9=58|35=0|34=40|49=S2TDMA|52=20170206-08:40:09.848|56=KOTAKS2T|10=019|8=FIX.4.2|9=69|35=0|34=41|49=S2TDMA|52=20170206-08:40:09.848|56=KOTAKS2T|112=Prasad|10=067|8=FIX.4.2|9=58|35=0|34=42|49=S2TDMA|52=20170206-08:40:39.864|56=KOTAKS2T|10=022|8=FIX.4.2|9=69|35=0|34=43|49=S2TDMA|52=20170206-08:40:40.192|56=KOTAKS2T|112=Prasad|10=056|8=FIX.4.2|9=58|35=0|34=44|49=S2TDMA|52=20170206-08:41:10.239|56=KOTAKS2T|10=010|8=FIX.4.2|9=69|35=0|34=45|49=S2TDMA|52=20170206-08:41:10.645|56=KOTAKS2T|112=Prasad|10=059|8=FIX.4.2|9=69|35=0|34=46|49=S2TDMA|52=20170206-08:41:40.911|56=KOTAKS2T|112=Prasad|10=059|8=FIX.4.2|9=69|35=0|34=47|49=S2TDMA|52=20170206-08:42:11.192|56=KOTAKS2T|112=Prasad|10=060|8=FIX.4.2|9=58|35=0|34=48|49=S2TDMA|52=20170206-08:42:41.243|56=KOTAKS2T|10=014|8=FIX.4.2|9=69|35=0|34=49|49=S2TDMA|52=20170206-08:42:41.536|56=KOTAKS2T|112=Prasad|10=067|8=FIX.4.2|9=58|35=0|34=50|49=S2TDMA|52=20170206-08:43:11.558|56=KOTAKS2T|10=014|8=FIX.4.2|9=161|35=D|34=51|49=S2TDMA|52=20170206-08:43:37.484|56=KOTAKS2T|1=D2|11=43|21=1|38=75|40=2|44=8754|54=1|55=AXISBANK|60=20170206-08:43:37.477|100=NS|167=FUT|200=201701|10=096|8=FIX.4.2|9=58|35=0|34=52|49=S2TDMA|52=20170206-08:44:07.593|56=KOTAKS2T|10=021|8=FIX.4.2|9=69|35=0|34=53|49=S2TDMA|52=20170206-08:44:37.926|56=KOTAKS2T|112=Prasad|10=072|8=FIX.4.2|9=69|35=0|34=54|49=S2TDMA|52=20170206-08:45:08.145|56=KOTAKS2T|112=Prasad|10=065|8=FIX.4.2|9=69|35=0|34=55|49=S2TDMA|52=20170206-08:45:38.458|56=KOTAKS2T|112=Prasad|10=076|8=FIX.4.2|9=58|35=0|34=56|49=S2TDMA|52=20170206-08:46:08.458|56=KOTAKS2T|10=028|8=FIX.4.2|9=69|35=0|34=57|49=S2TDMA|52=20170206-08:46:08.676|56=KOTAKS2T|112=Prasad|10=078|8=FIX.4.2|9=58|35=0|34=58|49=S2TDMA|52=20170206-08:46:38.677|56=KOTAKS2T|10=036|8=FIX.4.2|9=69|35=0|34=59|49=S2TDMA|52=20170206-08:47:08.911|56=KOTAKS2T|112=Prasad|10=073|8=FIX.4.2|9=69|35=0|34=60|49=S2TDMA|52=20170206-08:47:39.192|56=KOTAKS2T|112=Prasad|10=070|8=FIX.4.2|9=58|35=0|34=61|49=S2TDMA|52=20170206-08:48:09.192|56=KOTAKS2T|10=022|8=FIX.4.2|9=69|35=0|34=62|49=S2TDMA|52=20170206-08:48:09.395|56=KOTAKS2T|112=Prasad|10=075|8=FIX.4.2|9=58|35=0|34=63|49=S2TDMA|52=20170206-08:48:39.442|56=KOTAKS2T|10=025|8=FIX.4.2|9=69|35=0|34=64|49=S2TDMA|52=20170206-08:48:39.661|56=KOTAKS2T|112=Prasad|10=076|8=FIX.4.2|9=58|35=0|34=65|49=S2TDMA|52=20170206-08:49:09.661|56=KOTAKS2T|10=028|8=FIX.4.2|9=58|35=0|34=66|49=S2TDMA|52=20170206-08:49:39.661|56=KOTAKS2T|10=032|8=FIX.4.2|9=69|35=0|34=67|49=S2TDMA|52=20170206-08:50:09.880|56=KOTAKS2T|112=Prasad|10=072|8=FIX.4.2|9=58|35=0|34=68|49=S2TDMA|52=20170206-08:50:39.926|56=KOTAKS2T|10=030|8=FIX.4.2|9=58|35=0|34=69|49=S2TDMA|52=20170206-08:51:09.942|56=KOTAKS2T|10=027|8=FIX.4.2|9=70|35=A|34=70|49=S2TDMA|52=20170206-08:51:28.114|56=KOTAKS2T|98=0|108=30|10=047|8=FIX.4.2|9=58|35=0|34=71|49=S2TDMA|52=20170206-08:51:59.255|56=KOTAKS2T|10=022|8=FIX.4.2|9=69|35=0|34=72|49=S2TDMA|52=20170206-08:51:59.395|56=KOTAKS2T|112=Prasad|10=075|8=FIX.4.2|9=69|35=0|34=73|49=S2TDMA|52=20170206-08:52:30.176|56=KOTAKS2T|112=Prasad|10=063|8=FIX.4.2|9=70|35=A|34=74|49=S2TDMA|52=20170206-08:53:29.708|56=KOTAKS2T|98=0|108=30|10=063|8=FIX.4.2|9=58|35=0|34=75|49=S2TDMA|52=20170206-08:54:01.395|56=KOTAKS2T|10=021|8=FIX.4.2|9=69|35=0|34=76|49=S2TDMA|52=20170206-08:54:01.692|56=KOTAKS2T|112=Prasad|10=069|8=FIX.4.2|9=58|35=0|34=77|49=S2TDMA|52=20170206-08:54:32.895|56=KOTAKS2T|10=032|8=FIX.4.2|9=69|35=0|34=78|49=S2TDMA|52=20170206-08:54:32.958|56=KOTAKS2T|112=Prasad|10=080|8=FIX.4.2|9=58|35=0|34=79|49=S2TDMA|52=20170206-08:55:03.364|56=KOTAKS2T|10=024|8=FIX.4.2|9=69|35=0|34=80|49=S2TDMA|52=20170206-08:55:03.554|56=KOTAKS2T|112=Prasad|10=064|8=FIX.4.2|9=70|35=A|34=81|49=S2TDMA|52=20170206-08:56:01.301|56=KOTAKS2T|98=0|108=30|10=043|8=FIX.4.2|9=58|35=0|34=82|49=S2TDMA|52=20170206-08:56:31.320|56=KOTAKS2T|10=012|8=FIX.4.2|9=157|35=D|34=83|49=S2TDMA|52=20170206-08:56:32.864|56=KOTAKS2T|1=D2|11=44|21=1|38=1|40=2|44=8755|54=1|55=NIFTY|60=20170206-08:56:32.849|100=NS|167=FUT|200=201702|10=110|8=FIX.4.2|9=69|35=0|34=84|49=S2TDMA|52=20170206-08:57:03.239|56=KOTAKS2T|112=Prasad|10=070|8=FIX.4.2|9=58|35=0|34=85|49=S2TDMA|52=20170206-08:57:33.426|56=KOTAKS2T|10=025|8=FIX.4.2|9=69|35=0|34=86|49=S2TDMA|52=20170206-08:57:33.618|56=KOTAKS2T|112=Prasad|10=076|8=FIX.4.2|9=58|35=0|34=87|49=S2TDMA|52=20170206-08:58:03.661|56=KOTAKS2T|10=026|8=FIX.4.2|9=69|35=0|34=88|49=S2TDMA|52=20170206-08:58:03.865|56=KOTAKS2T|112=Prasad|10=080|8=FIX.4.2|9=58|35=0|34=89|49=S2TDMA|52=20170206-08:58:33.880|56=KOTAKS2T|10=034|8=FIX.4.2|9=69|35=0|34=90|49=S2TDMA|52=20170206-08:58:34.099|56=KOTAKS2T|112=Prasad|10=076|8=FIX.4.2|9=58|35=0|34=91|49=S2TDMA|52=20170206-08:59:04.255|56=KOTAKS2T|10=022|8=FIX.4.2|9=69|35=0|34=92|49=S2TDMA|52=20170206-08:59:04.317|56=KOTAKS2T|112=Prasad|10=069|8=FIX.4.2|9=69|35=0|34=93|49=S2TDMA|52=20170206-08:59:34.755|56=KOTAKS2T|112=Prasad|10=079|8=FIX.4.2|9=69|35=0|34=94|49=S2TDMA|52=20170206-09:00:04.973|56=KOTAKS2T|112=Prasad|10=066|8=FIX.4.2|9=58|35=0|34=95|49=S2TDMA|52=20170206-09:00:35.005|56=KOTAKS2T|10=010|8=FIX.4.2|9=58|35=0|34=96|49=S2TDMA|52=20170206-09:01:05.006|56=KOTAKS2T|10=010|8=FIX.4.2|9=58|35=0|34=97|49=S2TDMA|52=20170206-09:01:35.018|56=KOTAKS2T|10=017|8=FIX.4.2|9=69|35=0|34=98|49=S2TDMA|52=20170206-09:01:35.224|56=KOTAKS2T|112=Prasad|10=064|8=FIX.4.2|9=58|35=0|34=99|49=S2TDMA|52=20170206-09:02:06.495|56=KOTAKS2T|10=027|8=FIX.4.2|9=70|35=0|34=100|49=S2TDMA|52=20170206-09:02:08.321|56=KOTAKS2T|112=Prasad|10=087|8=FIX.4.2|9=71|35=A|34=101|49=S2TDMA|52=20170206-09:03:08.343|56=KOTAKS2T|98=0|108=30|10=091|8=FIX.4.2|9=70|35=2|34=102|49=S2TDMA|52=20170206-09:03:10.075|56=KOTAKS2T|7=119|16=0|10=019|8=FIX.4.2|9=118|35=3|34=103|49=S2TDMA|52=20170206-09:03:12.915|56=KOTAKS2T|45=119|58=Tag specified out of required order|371=43|372=4|10=181|8=FIX.4.2|9=59|35=0|34=104|49=S2TDMA|52=20170206-09:03:45.374|56=KOTAKS2T|10=063|8=FIX.4.2|9=68|35=1|34=105|49=S2TDMA|52=20170206-09:03:50.149|56=KOTAKS2T|112=TEST|10=079|8=FIX.4.2|9=71|35=A|34=106|49=S2TDMA|52=20170206-09:05:08.175|56=KOTAKS2T|98=0|108=30|10=101|8=FIX.4.2|9=70|35=2|34=107|49=S2TDMA|52=20170206-09:05:09.570|56=KOTAKS2T|7=119|16=0|10=034|8=FIX.4.2|9=118|35=3|34=108|49=S2TDMA|52=20170206-09:05:10.855|56=KOTAKS2T|45=119|58=Tag specified out of required order|371=43|372=4|10=189|8=FIX.4.2|9=59|35=0|34=109|49=S2TDMA|52=20170206-09:05:41.547|56=KOTAKS2T|10=068|8=FIX.4.2|9=68|35=1|34=110|49=S2TDMA|52=20170206-09:05:45.969|56=KOTAKS2T|112=TEST|10=091|8=FIX.4.2|9=71|35=A|34=111|49=S2TDMA|52=20170206-09:07:09.065|56=KOTAKS2T|98=0|108=30|10=098|8=FIX.4.2|9=70|35=2|34=112|49=S2TDMA|52=20170206-09:07:10.864|56=KOTAKS2T|7=119|16=0|10=030|8=FIX.4.2|9=118|35=3|34=113|49=S2TDMA|52=20170206-09:07:12.780|56=KOTAKS2T|45=119|58=Tag specified out of required order|371=43|372=4|10=186|8=FIX.4.2|9=59|35=0|34=114|49=S2TDMA|52=20170206-09:07:43.105|56=KOTAKS2T|10=058|8=FIX.4.2|9=68|35=1|34=115|49=S2TDMA|52=20170206-09:07:47.014|56=KOTAKS2T|112=TEST|10=081|8=FIX.4.2|9=71|35=A|34=116|49=S2TDMA|52=20170206-09:09:11.380|56=KOTAKS2T|98=0|108=30|10=098|8=FIX.4.2|9=70|35=2|34=117|49=S2TDMA|52=20170206-09:09:12.818|56=KOTAKS2T|7=119|16=0|10=038|8=FIX.4.2|9=118|35=3|34=118|49=S2TDMA|52=20170206-09:09:16.454|56=KOTAKS2T|45=119|58=Tag specified out of required order|371=43|372=4|10=195|8=FIX.4.2|9=157|35=D|34=119|49=S2TDMA|52=20170206-09:09:45.864|56=KOTAKS2T|1=D2|11=45|21=1|38=1|40=2|44=144.2|54=1|55=DLF|60=20170206-09:09:45.863|100=NS|167=FUT|200=201702|10=013|8=FIX.4.2|9=68|35=1|34=120|49=S2TDMA|52=20170206-09:09:49.207|56=KOTAKS2T|112=TEST|10=085|8=FIX.4.2|9=71|35=A|34=121|49=S2TDMA|52=20170206-09:11:11.618|56=KOTAKS2T|98=0|108=30|10=091|8=FIX.4.2|9=70|35=2|34=122|49=S2TDMA|52=20170206-09:11:12.402|56=KOTAKS2T|7=119|16=0|10=016|8=FIX.4.2|9=118|35=3|34=123|49=S2TDMA|52=20170206-09:11:15.017|56=KOTAKS2T|45=119|58=Tag specified out of required order|371=43|372=4|10=178|8=FIX.4.2|9=118|35=3|34=124|49=S2TDMA|52=20170206-09:11:15.020|56=KOTAKS2T|45=142|58=Tag specified out of required order|371=52|372=8|10=173|8=FIX.4.2|9=118|35=3|34=125|49=S2TDMA|52=20170206-09:11:15.021|56=KOTAKS2T|45=143|58=Tag specified out of required order|371=52|372=8|10=176|8=FIX.4.2|9=118|35=3|34=126|49=S2TDMA|52=20170206-09:11:15.021|56=KOTAKS2T|45=144|58=Tag specified out of required order|371=43|372=4|10=174|8=FIX.4.2|9=59|35=0|34=127|49=S2TDMA|52=20170206-09:11:45.275|56=KOTAKS2T|10=067|8=FIX.4.2|9=68|35=1|34=128|49=S2TDMA|52=20170206-09:11:49.282|56=KOTAKS2T|112=TEST|10=089|8=FIX.4.2|9=157|35=D|34=129|49=S2TDMA|52=20170206-09:11:56.204|56=KOTAKS2T|1=D2|11=46|21=1|38=1|40=2|44=144.2|54=1|55=DLF|60=20170206-09:11:56.203|100=NS|167=FUT|200=201702|10=237|8=FIX.4.2|9=71|35=A|34=130|49=S2TDMA|52=20170206-09:13:12.923|56=KOTAKS2T|98=0|108=30|10=093|8=FIX.4.2|9=70|35=2|34=131|49=S2TDMA|52=20170206-09:13:14.510|56=KOTAKS2T|7=119|16=0|10=020|8=FIX.4.2|9=118|35=3|34=132|49=S2TDMA|52=20170206-09:13:15.630|56=KOTAKS2T|45=119|58=Tag specified out of required order|371=43|372=4|10=181|8=FIX.4.2|9=118|35=3|34=133|49=S2TDMA|52=20170206-09:13:15.724|56=KOTAKS2T|45=142|58=Tag specified out of required order|371=52|372=8|10=186|8=FIX.4.2|9=118|35=3|34=134|49=S2TDMA|52=20170206-09:13:15.844|56=KOTAKS2T|45=143|58=Tag specified out of required order|371=52|372=8|10=191|8=FIX.4.2|9=118|35=3|34=135|49=S2TDMA|52=20170206-09:13:15.880|56=KOTAKS2T|45=144|58=Tag specified out of required order|371=43|372=4|10=189|8=FIX.4.2|9=118|35=3|34=136|49=S2TDMA|52=20170206-09:13:16.194|56=KOTAKS2T|45=150|58=Tag specified out of required order|371=52|372=8|10=190|8=FIX.4.2|9=118|35=3|34=137|49=S2TDMA|52=20170206-09:13:16.342|56=KOTAKS2T|45=151|58=Tag specified out of required order|371=52|372=8|10=187|8=FIX.4.2|9=118|35=3|34=138|49=S2TDMA|52=20170206-09:13:16.492|56=KOTAKS2T|45=152|58=Tag specified out of required order|371=43|372=4|10=191|8=FIX.4.2|9=59|35=0|34=139|49=S2TDMA|52=20170206-09:13:47.427|56=KOTAKS2T|10=073|8=FIX.4.2|9=155|35=D|34=140|49=S2TDMA|52=20170206-09:13:49.520|56=KOTAKS2T|1=D2|11=47|21=1|38=1|40=2|44=145|54=1|55=DLF|60=20170206-09:13:49.520|100=NS|167=FUT|200=201702|10=145|8=FIX.4.2|9=68|35=1|34=141|49=S2TDMA|52=20170206-09:13:51.602|56=KOTAKS2T|112=TEST|10=075|8=FIX.4.2|9=71|35=A|34=142|49=S2TDMA|52=20170206-09:15:13.709|56=KOTAKS2T|98=0|108=30|10=101|8=FIX.4.2|9=70|35=2|34=143|49=S2TDMA|52=20170206-09:15:14.224|56=KOTAKS2T|7=119|16=0|10=027|8=FIX.4.2|9=118|35=3|34=144|49=S2TDMA|52=20170206-09:15:15.223|56=KOTAKS2T|45=119|58=Tag specified out of required order|371=43|372=4|10=184|8=FIX.4.2|9=118|35=3|34=145|49=S2TDMA|52=20170206-09:15:15.317|56=KOTAKS2T|45=142|58=Tag specified out of required order|371=52|372=8|10=189|8=FIX.4.2|9=118|35=3|34=146|49=S2TDMA|52=20170206-09:15:15.536|56=KOTAKS2T|45=143|58=Tag specified out of required order|371=52|372=8|10=194|8=FIX.4.2|9=118|35=3|34=147|49=S2TDMA|52=20170206-09:15:15.630|56=KOTAKS2T|45=144|58=Tag specified out of required order|371=43|372=4|10=187|8=FIX.4.2|9=118|35=3|34=148|49=S2TDMA|52=20170206-09:15:15.770|56=KOTAKS2T|45=150|58=Tag specified out of required order|371=52|372=8|10=194|8=FIX.4.2|9=118|35=3|34=149|49=S2TDMA|52=20170206-09:15:16.224|56=KOTAKS2T|45=151|58=Tag specified out of required order|371=52|372=8|10=191|8=FIX.4.2|9=118|35=3|34=150|49=S2TDMA|52=20170206-09:15:16.426|56=KOTAKS2T|45=152|58=Tag specified out of required order|371=43|372=4|10=184|8=FIX.4.2|9=118|35=3|34=151|49=S2TDMA|52=20170206-09:15:16.520|56=KOTAKS2T|45=155|58=Tag specified out of required order|371=52|372=8|10=187|8=FIX.4.2|9=118|35=3|34=152|49=S2TDMA|52=20170206-09:15:16.692|56=KOTAKS2T|45=156|58=Tag specified out of required order|371=52|372=8|10=199|8=FIX.4.2|9=118|35=3|34=153|49=S2TDMA|52=20170206-09:15:16.692|56=KOTAKS2T|45=157|58=Tag specified out of required order|371=43|372=4|10=197|8=FIX.4.2|9=59|35=0|34=154|49=S2TDMA|52=20170206-09:15:46.942|56=KOTAKS2T|10=073|8=FIX.4.2|9=68|35=1|34=155|49=S2TDMA|52=20170206-09:15:50.739|56=KOTAKS2T|112=TEST|10=092|